{
  "address": "0x44a29e3404bd796ba7Ec398377A46B5bBE83210e",
  "abi": [
    {
      "inputs": [
        {
          "internalType": "address",
          "name": "_validatorAddr",
          "type": "address"
        }
      ],
      "stateMutability": "nonpayable",
      "type": "constructor"
    },
    {
      "anonymous": false,
      "inputs": [
        {
          "components": [
            {
              "internalType": "uint256[3]",
              "name": "requiredQuests",
              "type": "uint256[3]"
            },
            {
              "internalType": "uint256",
              "name": "engagePointsThreshold",
              "type": "uint256"
            },
            {
              "internalType": "uint256",
              "name": "badgePrice",
              "type": "uint256"
            },
            {
              "internalType": "string",
              "name": "name",
              "type": "string"
            },
            {
              "internalType": "address",
              "name": "NFT",
              "type": "address"
            },
            {
              "internalType": "uint256",
              "name": "groupId",
              "type": "uint256"
            },
            {
              "internalType": "uint256",
              "name": "schemaHash",
              "type": "uint256"
            }
          ],
          "indexed": false,
          "internalType": "struct LibBadgeFacet.BadgeData",
          "name": "badgeData",
          "type": "tuple"
        },
        {
          "indexed": false,
          "internalType": "string",
          "name": "nftSymbol",
          "type": "string"
        },
        {
          "indexed": false,
          "internalType": "string",
          "name": "nftInitBaseURI",
          "type": "string"
        },
        {
          "indexed": false,
          "internalType": "uint256",
          "name": "id",
          "type": "uint256"
        }
      ],
      "name": "BadgeCreated",
      "type": "event"
    },
    {
      "anonymous": false,
      "inputs": [
        {
          "indexed": true,
          "internalType": "address",
          "name": "previousOwner",
          "type": "address"
        },
        {
          "indexed": true,
          "internalType": "address",
          "name": "newOwner",
          "type": "address"
        }
      ],
      "name": "OwnershipTransferred",
      "type": "event"
    },
    {
      "inputs": [
        {
          "components": [
            {
              "internalType": "uint256[3]",
              "name": "requiredQuests",
              "type": "uint256[3]"
            },
            {
              "internalType": "uint256",
              "name": "engagePointsThreshold",
              "type": "uint256"
            },
            {
              "internalType": "uint256",
              "name": "badgePrice",
              "type": "uint256"
            },
            {
              "internalType": "string",
              "name": "name",
              "type": "string"
            },
            {
              "internalType": "address",
              "name": "NFT",
              "type": "address"
            },
            {
              "internalType": "uint256",
              "name": "groupId",
              "type": "uint256"
            },
            {
              "internalType": "uint256",
              "name": "schemaHash",
              "type": "uint256"
            }
          ],
          "internalType": "struct LibBadgeFacet.BadgeData",
          "name": "_badgeData",
          "type": "tuple"
        },
        {
          "internalType": "string",
          "name": "_nftSymbol",
          "type": "string"
        },
        {
          "internalType": "string",
          "name": "_nftInitBaseURI",
          "type": "string"
        }
      ],
      "name": "addBadge",
      "outputs": [],
      "stateMutability": "nonpayable",
      "type": "function"
    },
    {
      "inputs": [
        {
          "internalType": "address",
          "name": "",
          "type": "address"
        }
      ],
      "name": "addressToId",
      "outputs": [
        {
          "internalType": "uint256",
          "name": "",
          "type": "uint256"
        }
      ],
      "stateMutability": "view",
      "type": "function"
    },
    {
      "inputs": [
        {
          "internalType": "uint256",
          "name": "_badgeId",
          "type": "uint256"
        }
      ],
      "name": "getBadge",
      "outputs": [
        {
          "components": [
            {
              "internalType": "uint256[3]",
              "name": "requiredQuests",
              "type": "uint256[3]"
            },
            {
              "internalType": "uint256",
              "name": "engagePointsThreshold",
              "type": "uint256"
            },
            {
              "internalType": "uint256",
              "name": "badgePrice",
              "type": "uint256"
            },
            {
              "internalType": "string",
              "name": "name",
              "type": "string"
            },
            {
              "internalType": "address",
              "name": "NFT",
              "type": "address"
            },
            {
              "internalType": "uint256",
              "name": "groupId",
              "type": "uint256"
            },
            {
              "internalType": "uint256",
              "name": "schemaHash",
              "type": "uint256"
            }
          ],
          "internalType": "struct LibBadgeFacet.BadgeData",
          "name": "",
          "type": "tuple"
        }
      ],
      "stateMutability": "view",
      "type": "function"
    },
    {
      "inputs": [],
      "name": "getSupportedRequests",
      "outputs": [
        {
          "internalType": "uint64[]",
          "name": "arr",
          "type": "uint64[]"
        }
      ],
      "stateMutability": "view",
      "type": "function"
    },
    {
      "inputs": [
        {
          "internalType": "uint64",
          "name": "requestId",
          "type": "uint64"
        }
      ],
      "name": "getZKPRequest",
      "outputs": [
        {
          "components": [
            {
              "internalType": "uint256",
              "name": "schema",
              "type": "uint256"
            },
            {
              "internalType": "uint256",
              "name": "slotIndex",
              "type": "uint256"
            },
            {
              "internalType": "uint256",
              "name": "operator",
              "type": "uint256"
            },
            {
              "internalType": "uint256[]",
              "name": "value",
              "type": "uint256[]"
            },
            {
              "internalType": "string",
              "name": "circuitId",
              "type": "string"
            }
          ],
          "internalType": "struct ICircuitValidator.CircuitQuery",
          "name": "",
          "type": "tuple"
        }
      ],
      "stateMutability": "view",
      "type": "function"
    },
    {
      "inputs": [
        {
          "internalType": "uint256",
          "name": "",
          "type": "uint256"
        }
      ],
      "name": "idToAddress",
      "outputs": [
        {
          "internalType": "address",
          "name": "",
          "type": "address"
        }
      ],
      "stateMutability": "view",
      "type": "function"
    },
    {
      "inputs": [
        {
          "internalType": "uint256",
          "name": "_groupId",
          "type": "uint256"
        }
      ],
      "name": "isMemberOfGroup",
      "outputs": [
        {
          "internalType": "bool",
          "name": "",
          "type": "bool"
        }
      ],
      "stateMutability": "view",
      "type": "function"
    },
    {
      "inputs": [],
      "name": "owner",
      "outputs": [
        {
          "internalType": "address",
          "name": "",
          "type": "address"
        }
      ],
      "stateMutability": "view",
      "type": "function"
    },
    {
      "inputs": [
        {
          "internalType": "address",
          "name": "",
          "type": "address"
        },
        {
          "internalType": "uint64",
          "name": "",
          "type": "uint64"
        }
      ],
      "name": "proofs",
      "outputs": [
        {
          "internalType": "bool",
          "name": "",
          "type": "bool"
        }
      ],
      "stateMutability": "view",
      "type": "function"
    },
    {
      "inputs": [],
      "name": "renounceOwnership",
      "outputs": [],
      "stateMutability": "nonpayable",
      "type": "function"
    },
    {
      "inputs": [
        {
          "internalType": "uint64",
          "name": "",
          "type": "uint64"
        }
      ],
      "name": "requestQueries",
      "outputs": [
        {
          "internalType": "uint256",
          "name": "schema",
          "type": "uint256"
        },
        {
          "internalType": "uint256",
          "name": "slotIndex",
          "type": "uint256"
        },
        {
          "internalType": "uint256",
          "name": "operator",
          "type": "uint256"
        },
        {
          "internalType": "string",
          "name": "circuitId",
          "type": "string"
        }
      ],
      "stateMutability": "view",
      "type": "function"
    },
    {
      "inputs": [
        {
          "internalType": "uint64",
          "name": "",
          "type": "uint64"
        }
      ],
      "name": "requestValidators",
      "outputs": [
        {
          "internalType": "contract ICircuitValidator",
          "name": "",
          "type": "address"
        }
      ],
      "stateMutability": "view",
      "type": "function"
    },
    {
      "inputs": [
        {
          "internalType": "address",
          "name": "_validator",
          "type": "address"
        }
      ],
      "name": "setValidator",
      "outputs": [],
      "stateMutability": "nonpayable",
      "type": "function"
    },
    {
      "inputs": [
        {
          "internalType": "uint64",
          "name": "requestId",
          "type": "uint64"
        },
        {
          "internalType": "uint256[]",
          "name": "inputs",
          "type": "uint256[]"
        },
        {
          "internalType": "uint256[2]",
          "name": "a",
          "type": "uint256[2]"
        },
        {
          "internalType": "uint256[2][2]",
          "name": "b",
          "type": "uint256[2][2]"
        },
        {
          "internalType": "uint256[2]",
          "name": "c",
          "type": "uint256[2]"
        }
      ],
      "name": "submitZKPResponse",
      "outputs": [
        {
          "internalType": "bool",
          "name": "",
          "type": "bool"
        }
      ],
      "stateMutability": "payable",
      "type": "function"
    },
    {
      "inputs": [
        {
          "internalType": "uint256",
          "name": "",
          "type": "uint256"
        }
      ],
      "name": "supportedRequests",
      "outputs": [
        {
          "internalType": "uint64",
          "name": "",
          "type": "uint64"
        }
      ],
      "stateMutability": "view",
      "type": "function"
    },
    {
      "inputs": [
        {
          "internalType": "address",
          "name": "newOwner",
          "type": "address"
        }
      ],
      "name": "transferOwnership",
      "outputs": [],
      "stateMutability": "nonpayable",
      "type": "function"
    }
  ],
  "transactionHash": "0x9bef8d3515b5e49810e01212c61231c335d91a722fe753edde35220b0a51bbaf",
  "args": [
    "0xb1e86C4c687B85520eF4fd2a0d14e81970a15aFB"
  ],
  "numDeployments": 1,
  "solcInputHash": "3a0070444e9c04a4e824ddb39446b5cc",
  "bytecode": "0x60806040523480156200001157600080fd5b5060405162004d8b38038062004d8b8339810160408190526200003491620000f3565b6200003f336200007f565b600062000056620000cf60201b62000edd1760201c565b60020180546001600160a01b0319166001600160a01b0393909316929092179091555062000125565b600080546001600160a01b038381166001600160a01b0319831681178455604051919092169283917f8be0079c531659141344cd1fd0a4f28419497f9722a3daafe3b4186f6b6457e09190a35050565b7f1d4693b93f98f936b8f6057327b59bd2dcbe13c2640e907a498baa185617344490565b6000602082840312156200010657600080fd5b81516001600160a01b03811681146200011e57600080fd5b9392505050565b614c5680620001356000396000f3fe608060405260043610620001075760003560e01c8063a87231141162000095578063cb0e0d7d1162000060578063cb0e0d7d146200034e578063ed3ecca3146200038e578063f143532614620003b3578063f2fde38b14620003f157600080fd5b8063a8723114146200028a578063b45c0fdf14620002c4578063b68967e21462000303578063c76d0845146200031a57600080fd5b80638d83862211620000d65780638d83862214620001c95780638da5cb5b14620001fd578063941eac48146200021d57806396bf4741146200025357600080fd5b80631327d3d8146200010c5780632a2d0c47146200013357806337ba9523146200018a578063715018a614620001b1575b600080fd5b3480156200011957600080fd5b50620001316200012b36600462001d82565b62000416565b005b3480156200014057600080fd5b506200016d6200015236600462001da0565b6005602052600090815260409020546001600160a01b031681565b6040516001600160a01b0390911681526020015b60405180910390f35b3480156200019757600080fd5b50620001a262000447565b60405162000181919062001dba565b348015620001be57600080fd5b5062000131620004d3565b348015620001d657600080fd5b50620001ee620001e836600462001da0565b620004eb565b60405162000181919062001e59565b3480156200020a57600080fd5b506000546001600160a01b03166200016d565b3480156200022a57600080fd5b50620002426200023c36600462001da0565b6200062a565b604051901515815260200162000181565b3480156200026057600080fd5b50620002786200027236600462001f12565b6200063e565b60405162000181949392919062001f30565b3480156200029757600080fd5b506200016d620002a936600462001f12565b6003602052600090815260409020546001600160a01b031681565b348015620002d157600080fd5b5062000242620002e336600462001f61565b600160209081526000928352604080842090915290825290205460ff1681565b6200024262000314366004620020df565b620006f9565b3480156200032757600080fd5b506200033f6200033936600462001f12565b6200096a565b6040516200018191906200221e565b3480156200035b57600080fd5b506200037f6200036d36600462001d82565b60066020526000908152604090205481565b60405190815260200162000181565b3480156200039b57600080fd5b5062000131620003ad366004620023b7565b62000acf565b348015620003c057600080fd5b50620003d8620003d236600462001da0565b62000e20565b6040516001600160401b03909116815260200162000181565b348015620003fe57600080fd5b50620001316200041036600462001d82565b62000e5e565b60006200042262000edd565b60020180546001600160a01b0319166001600160a01b03939093169290921790915550565b60606004805480602002602001604051908101604052809291908181526020018280548015620004c957602002820191906000526020600020906000905b82829054906101000a90046001600160401b03166001600160401b031681526020019060080190602082600701049283019260010382029150808411620004855790505b5050505050905090565b620004dd62000f01565b620004e9600062000f5d565b565b620004f562001bd8565b60006200050162000edd565b60008481526003828101602052604091829020825161014081019384905293945091839160e083019184919082845b81548152602001906001019080831162000530575050505050815260200160038201548152602001600482015481526020016005820180546200057390620024d9565b80601f0160208091040260200160405190810160405280929190818152602001828054620005a190620024d9565b8015620005f25780601f10620005c657610100808354040283529160200191620005f2565b820191906000526020600020905b815481529060010190602001808311620005d457829003601f168201915b505050918352505060068201546001600160a01b03166020820152600782015460408201526008909101546060909101529392505050565b600062000638338362000fad565b92915050565b6002602081905260009182526040909120805460018201549282015460048301805492949391926200067090620024d9565b80601f01602080910402602001604051908101604052809291908181526020018280546200069e90620024d9565b8015620006ef5780601f10620006c357610100808354040283529160200191620006ef565b820191906000526020600020905b815481529060010190602001808311620006d157829003601f168201915b5050505050905084565b6001600160401b0385166000908152600360205260408120546001600160a01b03166200077e5760405162461bcd60e51b815260206004820152602860248201527f76616c696461746f72206973206e6f742073657420666f7220746869732072656044820152671c5d595cdd081a5960c21b60648201526084015b60405180910390fd5b6001600160401b0386166000908152600260205260408120549003620007f35760405162461bcd60e51b8152602060048201526024808201527f7175657279206973206e6f742073657420666f722074686973207265717565736044820152631d081a5960e21b606482015260840162000775565b6001600160401b0386166000908152600360205260409020546200082490879087906001600160a01b0316620010cd565b6001600160401b03861660009081526003602090815260408083205460029092529182902091516319f8754160e21b81526001600160a01b03909116916367e1d504916200087e91899189918991899190600401620025e1565b602060405180830381865afa1580156200089c573d6000803e3d6000fd5b505050506040513d601f19601f82011682018060405250810190620008c29190620026dc565b620009105760405162461bcd60e51b815260206004820152601b60248201527f70726f6f6620726573706f6e7365206973206e6f742076616c69640000000000604482015260640162000775565b3360009081526001602081815260408084206001600160401b038b1685528252808420805460ff1916909317909255600390529020546200095e90879087906001600160a01b0316620011cd565b50600195945050505050565b6200099d6040518060a0016040528060008152602001600081526020016000815260200160608152602001606081525090565b6001600160401b038216600090815260026020818152604092839020835160a08101855281548152600182015481840152928101548385015260038101805485518185028101850190965280865293949193606086019383018282801562000a2557602002820191906000526020600020905b81548152602001906001019080831162000a10575b5050505050815260200160048201805462000a4090620024d9565b80601f016020809104026020016040519081016040528092919081815260200182805462000a6e90620024d9565b801562000abf5780601f1062000a935761010080835404028352916020019162000abf565b820191906000526020600020905b81548152906001019060200180831162000aa157829003601f168201915b5050505050815250509050919050565b600062000adb62000edd565b80546001018155905062000af48660a00151336200134d565b62000afe62001c26565b60005b600381101562000b55578751816003811062000b215762000b2162002700565b602002015182826003811062000b3b5762000b3b62002700565b60200201528062000b4c8162002716565b91505062000b01565b508060038301600062000b66855490565b8152602081019190915260400160002062000b8391600362001c44565b50602087015160038301600062000b98855490565b815260200190815260200160002060030181905550866040015182600301600062000bc4856000015490565b815260200190815260200160002060040181905550866060015182600301600062000bf0856000015490565b8152602001908152602001600020600501908051906020019062000c1692919062001c87565b5060a087015160038301600062000c2b855490565b81526020019081526020016000206007018190555086606001518686868660405162000c579062001d03565b62000c6795949392919062002767565b604051809103906000f08015801562000c84573d6000803e3d6000fd5b5060038301600062000c94855490565b815260200190815260200160002060060160006101000a8154816001600160a01b0302191690836001600160a01b031602179055508660c0015182600301600062000ce0856000015490565b81526020019081526020016000206008018190555060008260040160008960a0015181526020019081526020016000205490508060000362000d3557825460a089015160009081526004850160205260409020555b62000d468360010180546001019055565b62000d8262000d56846001015490565b600285015460c08b01516001600160a01b039091169062000d7c9060019081906200148b565b620015d2565b50825483600501600062000d97866001015490565b8152602001908152602001600020819055507f41f24346d975ab0f873f4e1a33cd2247a5f376afd30649867fe06f63c5c990c283600301600062000ddc866000015490565b81526020019081526020016000208888888862000dfa896000015490565b60405162000e0e96959493929190620027b4565b60405180910390a15050505050505050565b6004818154811062000e3157600080fd5b9060005260206000209060049182820401919006600802915054906101000a90046001600160401b031681565b62000e6862000f01565b6001600160a01b03811662000ecf5760405162461bcd60e51b815260206004820152602660248201527f4f776e61626c653a206e6577206f776e657220697320746865207a65726f206160448201526564647265737360d01b606482015260840162000775565b62000eda8162000f5d565b50565b7f1d4693b93f98f936b8f6057327b59bd2dcbe13c2640e907a498baa185617344490565b6000546001600160a01b03163314620004e95760405162461bcd60e51b815260206004820181905260248201527f4f776e61626c653a2063616c6c6572206973206e6f7420746865206f776e6572604482015260640162000775565b600080546001600160a01b038381166001600160a01b0319831681178455604051919092169283917f8be0079c531659141344cd1fd0a4f28419497f9722a3daafe3b4186f6b6457e09190a35050565b60008062000fba62000edd565b600301600062000fc962000edd565b6000868152600491820160209081526040808320548552908401949094529183019091206006015491516370a0823160e01b81526001600160a01b03878116928201929092529116906370a0823190602401602060405180830381865afa15801562001039573d6000803e3d6000fd5b505050506040513d601f19601f820116820180604052508101906200105f91906200287f565b11620010c45760405162461bcd60e51b815260206004820152602d60248201527f5573657220646f65736e7420686f6c64206d61696e206261646765206f66207460448201526c68697320636f6d6d756e69747960981b606482015260840162000775565b50600192915050565b60006200115a83836001600160a01b0316639f442afa6040518163ffffffff1660e01b8152600401602060405180830381865afa15801562001113573d6000803e3d6000fd5b505050506040513d601f19601f820116820180604052508101906200113991906200287f565b815181106200114c576200114c62002700565b602002602001015162001758565b9050336001600160a01b03821614620011c75760405162461bcd60e51b815260206004820152602860248201527f6164647265737320696e2070726f6f66206973206e6f7420612073656e646572604482015267206164647265737360c01b606482015260840162000775565b50505050565b33600090815260066020526040902054156200123e5760405162461bcd60e51b815260206004820152602960248201527f70726f6f662063616e206e6f74206265207375626d6974746564206d6f7265206044820152687468616e206f6e636560b81b606482015260840162000775565b600082826001600160a01b0316639f442afa6040518163ffffffff1660e01b8152600401602060405180830381865afa15801562001280573d6000803e3d6000fd5b505050506040513d601f19601f82011682018060405250810190620012a691906200287f565b81518110620012b957620012b962002700565b602002602001015190506000620012cf62000edd565b6000838152600560205260409020549091506001600160a01b031662001346576001600160401b03851660009081526005820160205260409020546200131590620018b9565b3360008181526006602090815260408083208690558583526005909152902080546001600160a01b03191690911790555b5050505050565b81600003620013965760405162461bcd60e51b8152602060048201526014602482015273067726f75702069642063616e6e6f7420626520360641b604482015260640162000775565b6001600160a01b038116620013ee5760405162461bcd60e51b815260206004820152601960248201527f6f776e657220616464726573732063616e6e6f74206265203000000000000000604482015260640162000775565b60008281527f7c7557f95a2f97ba23b20056e448af54f71e639e66ae0b4d106fd6235e42a90b60205260409020600101546001600160a01b03828116911614620014875760405162461bcd60e51b8152602060048201526024808201527f63616c6c6572206973206e6f7420746865206f776e6572206f662074686520676044820152630726f75760e41b606482015260840162000775565b5050565b620014be6040518060a0016040528060008152602001600081526020016000815260200160608152602001606081525090565b604080518181526108208101825260609160208201610800803683370190505090508381600081518110620014f757620014f762002700565b602002602001018181525050846001036200156e576040518060a0016040528084815260200160028152602001600181526020018281526020016040518060400160405280601881526020017763726564656e7469616c41746f6d6963517565727953696760401b815250815250915050620015cb565b6040518060a0016040528084815260200160028152602001600281526020018281526020016040518060400160405280601881526020017763726564656e7469616c41746f6d6963517565727953696760401b8152508152509150505b9392505050565b6001600160401b0383166000908152600360205260408120546001600160a01b031662001657576004805460018101825560008290529081047f8a35acfbc15ff81a39ae7d344fd709f28e8600b4aa8c65c6b64bfe7fe36bd19b0180546001600160401b0380881660086003909516949094026101000a938402930219169190911790555b60608201516001600160401b038516600090815260026020908152604090912082516200168e936003909201929091019062001d11565b506040808301516001600160401b038616600090815260026020818152939091209081019190915560808401518051620016d393600490930192919091019062001c87565b506020808301516001600160401b03861660009081526002835260409020600181019190915583518155608084015180516200171a93600490930192919091019062001c87565b50506001600160401b038316600090815260036020526040902080546001600160a01b0384166001600160a01b031990911617905560019392505050565b600062000638620018b2620018ac8460008190506008817eff00ff00ff00ff00ff00ff00ff00ff00ff00ff00ff00ff00ff00ff00ff00ff16901b6008827fff00ff00ff00ff00ff00ff00ff00ff00ff00ff00ff00ff00ff00ff00ff00ff0016901c1790506010817dffff0000ffff0000ffff0000ffff0000ffff0000ffff0000ffff0000ffff16901b6010827fffff0000ffff0000ffff0000ffff0000ffff0000ffff0000ffff0000ffff000016901c1790506020817bffffffff00000000ffffffff00000000ffffffff00000000ffffffff16901b6020827fffffffff00000000ffffffff00000000ffffffff00000000ffffffff0000000016901c17905060408177ffffffffffffffff0000000000000000ffffffffffffffff16901b60408277ffffffffffffffff0000000000000000ffffffffffffffff1916901c179050608081901b608082901c179050919050565b62001bae565b6014015190565b6000620018c562000edd565b600083815260038083016020526040808320815160608101928390529495507f7c7557f95a2f97ba23b20056e448af54f71e639e66ae0b4d106fd6235e42a9099492909182845b8154815260200190600101908083116200190c575050505050905060005b6003811015620019fb5781816003811062001949576200194962002700565b602002015115620019e6578260040160008383600381106200196f576200196f62002700565b602090810291909101518252818101929092526040908101600090812033825290925290205460ff16620019e65760405162461bcd60e51b815260206004820181905260248201527f7573657220686173206e6f7420636f6d706c65746520616c6c20717565737473604482015260640162000775565b80620019f28162002716565b9150506200192a565b506000848152600380850160205260409091200154801562001ab9576000858152600385016020908152604080832060070154835260058601825280832033845290915290205481111562001ab95760405162461bcd60e51b815260206004820152603960248201527f7573657220646f65736e74206861766520656e6f75676820656e67616765207060448201527f6f696e747320746f20636c61696d207468697320626164676500000000000000606482015260840162000775565b6000858152600385016020526040902060040154801562001b35578034101562001b355760405162461bcd60e51b815260206004820152602660248201527f6e6f7420656e6f7567687420657468657220746f206f627461696e207468697360448201526520626164676560d01b606482015260840162000775565b6000868152600386016020526040908190206006015490516335313c2160e11b81523360048201526001600160a01b0390911690636a62784290602401600060405180830381600087803b15801562001b8d57600080fd5b505af115801562001ba2573d6000803e3d6000fd5b50505050505050505050565b60408051602080825281830190925260609160208201818036833750505060208101929092525090565b6040518060e0016040528062001bed62001c26565b815260200160008152602001600081526020016060815260200160006001600160a01b0316815260200160008152602001600081525090565b60405180606001604052806003906020820280368337509192915050565b826003810192821562001c75579160200282015b8281111562001c7557825182559160200191906001019062001c58565b5062001c8392915062001d4e565b5090565b82805462001c9590620024d9565b90600052602060002090601f01602090048101928262001cb9576000855562001c75565b82601f1062001cd457805160ff191683800117855562001c75565b8280016001018555821562001c75579182018281111562001c7557825182559160200191906001019062001c58565b612387806200289a83390190565b82805482825590600052602060002090810192821562001c75579160200282018281111562001c7557825182559160200191906001019062001c58565b5b8082111562001c83576000815560010162001d4f565b80356001600160a01b038116811462001d7d57600080fd5b919050565b60006020828403121562001d9557600080fd5b620015cb8262001d65565b60006020828403121562001db357600080fd5b5035919050565b6020808252825182820181905260009190848201906040850190845b8181101562001dfd5783516001600160401b03168352928401929184019160010162001dd6565b50909695505050505050565b6000815180845260005b8181101562001e315760208185018101518683018201520162001e13565b8181111562001e44576000602083870101525b50601f01601f19169290920160200192915050565b6020808252825160009190828483015b600382101562001e8a57825181529183019160019190910190830162001e69565b5050508301516080830152604083015160a0830152606083015161012060c0840181905262001ebe61014085018362001e09565b9150608085015162001edb60e08601826001600160a01b03169052565b5060a085015161010085015260c0909401519390920192909252919050565b80356001600160401b038116811462001d7d57600080fd5b60006020828403121562001f2557600080fd5b620015cb8262001efa565b84815283602082015282604082015260806060820152600062001f57608083018462001e09565b9695505050505050565b6000806040838503121562001f7557600080fd5b62001f808362001d65565b915062001f906020840162001efa565b90509250929050565b634e487b7160e01b600052604160045260246000fd5b60405160e081016001600160401b038111828210171562001fd45762001fd462001f99565b60405290565b604080519081016001600160401b038111828210171562001fd45762001fd462001f99565b604051601f8201601f191681016001600160401b03811182821017156200202a576200202a62001f99565b604052919050565b600082601f8301126200204457600080fd5b6200204e62001fda565b8060408401858111156200206157600080fd5b845b818110156200207d57803584526020938401930162002063565b509095945050505050565b600082601f8301126200209a57600080fd5b620020a462001fda565b806080840185811115620020b757600080fd5b845b818110156200207d57620020ce878262002032565b8452602090930192604001620020b9565b60008060008060006101408688031215620020f957600080fd5b620021048662001efa565b94506020808701356001600160401b03808211156200212257600080fd5b818901915089601f8301126200213757600080fd5b8135818111156200214c576200214c62001f99565b8060051b91506200215f84830162001fff565b818152918301840191848101908c8411156200217a57600080fd5b938501935b838510156200219a578435825293850193908501906200217f565b809950505050505050620021b2876040880162002032565b9250620021c3876080880162002088565b9150620021d587610100880162002032565b90509295509295909350565b600081518084526020808501945080840160005b838110156200221357815187529582019590820190600101620021f5565b509495945050505050565b602081528151602082015260208201516040820152604082015160608201526000606083015160a060808401526200225a60c0840182620021e1565b90506080840151601f198483030160a085015262002279828262001e09565b95945050505050565b600082601f8301126200229457600080fd5b604051606081018181106001600160401b0382111715620022b957620022b962001f99565b604052806060840185811115620022cf57600080fd5b845b81811015620022eb578035835260209283019201620022d1565b509195945050505050565b600082601f8301126200230857600080fd5b81356001600160401b0381111562002324576200232462001f99565b62002339601f8201601f191660200162001fff565b8181528460208386010111156200234f57600080fd5b816020850160208301376000918101602001919091529392505050565b60008083601f8401126200237f57600080fd5b5081356001600160401b038111156200239757600080fd5b602083019150836020828501011115620023b057600080fd5b9250929050565b600080600080600060608688031215620023d057600080fd5b85356001600160401b0380821115620023e857600080fd5b90870190610120828a031215620023fe57600080fd5b6200240862001faf565b620024148a8462002282565b8152606083013560208201526080830135604082015260a0830135828111156200243d57600080fd5b6200244b8b828601620022f6565b6060830152506200245f60c0840162001d65565b608082015260e083013560a08201526101009092013560c0830152909550602087013590808211156200249157600080fd5b6200249f89838a016200236c565b90965094506040880135915080821115620024b957600080fd5b50620024c8888289016200236c565b969995985093965092949392505050565b600181811c90821680620024ee57607f821691505b6020821081036200250f57634e487b7160e01b600052602260045260246000fd5b50919050565b8060005b6002811015620011c757815184526020938401939091019060010162002519565b8054600090600181811c90808316806200255557607f831692505b602080841082036200257757634e487b7160e01b600052602260045260246000fd5b83885260208801828015620025955760018114620025a757620025d4565b60ff19871682528282019750620025d4565b60008981526020902060005b87811015620025ce57815484820152908601908401620025b3565b83019850505b5050505050505092915050565b6000610140808352620025f781840189620021e1565b90506020620026098185018962002515565b606084018760005b60028110156200263c576200262883835162002515565b604092909201919083019060010162002611565b5050506200264e60e085018762002515565b83820361012085015284548252600180860154828401526002860154604084015260a0606084018190526003870180549185018290526000908152838120929160c08601905b80831015620026b3578454825293830193918301919085019062002694565b508581036080870152620026cb8160048b016200253a565b9d9c50505050505050505050505050565b600060208284031215620026ef57600080fd5b81518015158114620015cb57600080fd5b634e487b7160e01b600052603260045260246000fd5b6000600182016200273757634e487b7160e01b600052601160045260246000fd5b5060010190565b81835281816020850137506000828201602090810191909152601f909101601f19169091010190565b6060815260006200277c606083018862001e09565b8281036020840152620027918187896200273e565b90508281036040840152620027a88185876200273e565b98975050505050505050565b608080825260009088908301825b6003811015620027e3578254825260019283019260209092019101620027c2565b505050600388015460e0830152600488015461010083015261012080830152620028156101a0830160058a016200253a565b60068901546001600160a01b03166101408401526007890154610160840152600889015461018084015282810360208401526200285481888a6200273e565b905082810360408401526200286b8186886200273e565b915050826060830152979650505050505050565b6000602082840312156200289257600080fd5b505191905056fe60c06040526005608081905264173539b7b760d91b60a09081526200002891600c9190620001b3565b5066b1a2bc2ec50000600d55600019600e556001600f556010805460ff191690553480156200005657600080fd5b506040516200238738038062002387833981016040819052620000799162000326565b82518390839062000092906000906020850190620001b3565b508051620000a8906001906020840190620001b3565b505050620000c5620000bf620000d960201b60201c565b620000dd565b620000d0816200012f565b505050620003f3565b3390565b600a80546001600160a01b038381166001600160a01b0319831681179093556040519116919082907f8be0079c531659141344cd1fd0a4f28419497f9722a3daafe3b4186f6b6457e090600090a35050565b6200013962000152565b80516200014e90600b906020840190620001b3565b5050565b600a546001600160a01b03163314620001b15760405162461bcd60e51b815260206004820181905260248201527f4f776e61626c653a2063616c6c6572206973206e6f7420746865206f776e6572604482015260640160405180910390fd5b565b828054620001c190620003b7565b90600052602060002090601f016020900481019282620001e5576000855562000230565b82601f106200020057805160ff191683800117855562000230565b8280016001018555821562000230579182015b828111156200023057825182559160200191906001019062000213565b506200023e92915062000242565b5090565b5b808211156200023e576000815560010162000243565b634e487b7160e01b600052604160045260246000fd5b600082601f8301126200028157600080fd5b81516001600160401b03808211156200029e576200029e62000259565b604051601f8301601f19908116603f01168101908282118183101715620002c957620002c962000259565b81604052838152602092508683858801011115620002e657600080fd5b600091505b838210156200030a5785820183015181830184015290820190620002eb565b838211156200031c5760008385830101525b9695505050505050565b6000806000606084860312156200033c57600080fd5b83516001600160401b03808211156200035457600080fd5b62000362878388016200026f565b945060208601519150808211156200037957600080fd5b62000387878388016200026f565b935060408601519150808211156200039e57600080fd5b50620003ad868287016200026f565b9150509250925092565b600181811c90821680620003cc57607f821691505b602082108103620003ed57634e487b7160e01b600052602260045260246000fd5b50919050565b611f8480620004036000396000f3fe608060405234801561001057600080fd5b50600436106101cf5760003560e01c80635c975abb11610104578063a22cb465116100a2578063d5abeb0111610071578063d5abeb01146103b3578063da3ef23f146103bc578063e985e9c5146103cf578063f2fde38b1461040b57600080fd5b8063a22cb46514610372578063b88d4fde14610385578063c668286214610398578063c87b56dd146103a057600080fd5b806370a08231116100de57806370a082311461033e578063715018a6146103515780638da5cb5b1461035957806395d89b411461036a57600080fd5b80635c975abb1461030b5780636352211e146103185780636a6278421461032b57600080fd5b8063239c70ae1161017157806342842e0e1161014b57806342842e0e146102b2578063438b6300146102c55780634f6ccce7146102e557806355f804b3146102f857600080fd5b8063239c70ae1461028357806323b872dd1461028c5780632f745c591461029f57600080fd5b8063081812fc116101ad578063081812fc14610226578063095ea7b31461025157806313faede61461026457806318160ddd1461027b57600080fd5b806301ffc9a7146101d457806302329a29146101fc57806306fdde0314610211575b600080fd5b6101e76101e236600461192e565b61041e565b60405190151581526020015b60405180910390f35b61020f61020a366004611960565b610449565b005b610219610464565b6040516101f391906119d3565b6102396102343660046119e6565b6104f6565b6040516001600160a01b0390911681526020016101f3565b61020f61025f366004611a16565b61051d565b61026d600d5481565b6040519081526020016101f3565b60085461026d565b61026d600f5481565b61020f61029a366004611a40565b610637565b61026d6102ad366004611a16565b610668565b61020f6102c0366004611a40565b6106fe565b6102d86102d3366004611a7c565b610719565b6040516101f39190611a97565b61026d6102f33660046119e6565b6107bb565b61020f610306366004611b67565b61084e565b6010546101e79060ff1681565b6102396103263660046119e6565b61086d565b61020f610339366004611a7c565b6108cd565b61026d61034c366004611a7c565b610920565b61020f6109a6565b600a546001600160a01b0316610239565b6102196109ba565b61020f610380366004611bb0565b6109c9565b61020f610393366004611be3565b6109d4565b610219610a0c565b6102196103ae3660046119e6565b610a9a565b61026d600e5481565b61020f6103ca366004611b67565b610b78565b6101e76103dd366004611c5f565b6001600160a01b03918216600090815260056020908152604080832093909416825291909152205460ff1690565b61020f610419366004611a7c565b610b93565b60006001600160e01b0319821663780e9d6360e01b1480610443575061044382610c0c565b92915050565b610451610c5c565b6010805460ff1916911515919091179055565b60606000805461047390611c89565b80601f016020809104026020016040519081016040528092919081815260200182805461049f90611c89565b80156104ec5780601f106104c1576101008083540402835291602001916104ec565b820191906000526020600020905b8154815290600101906020018083116104cf57829003601f168201915b5050505050905090565b600061050182610cb6565b506000908152600460205260409020546001600160a01b031690565b60006105288261086d565b9050806001600160a01b0316836001600160a01b03160361059a5760405162461bcd60e51b815260206004820152602160248201527f4552433732313a20617070726f76616c20746f2063757272656e74206f776e656044820152603960f91b60648201526084015b60405180910390fd5b336001600160a01b03821614806105b657506105b681336103dd565b6106285760405162461bcd60e51b815260206004820152603d60248201527f4552433732313a20617070726f76652063616c6c6572206973206e6f7420746f60448201527f6b656e206f776e6572206f7220617070726f76656420666f7220616c6c0000006064820152608401610591565b6106328383610d15565b505050565b6106413382610d83565b61065d5760405162461bcd60e51b815260040161059190611cc3565b610632838383610e02565b600061067383610920565b82106106d55760405162461bcd60e51b815260206004820152602b60248201527f455243373231456e756d657261626c653a206f776e657220696e646578206f7560448201526a74206f6620626f756e647360a81b6064820152608401610591565b506001600160a01b03919091166000908152600660209081526040808320938352929052205490565b610632838383604051806020016040528060008152506109d4565b6060600061072683610920565b905060008167ffffffffffffffff81111561074357610743611adb565b60405190808252806020026020018201604052801561076c578160200160208202803683370190505b50905060005b828110156107b3576107848582610668565b82828151811061079657610796611d10565b6020908102919091010152806107ab81611d3c565b915050610772565b509392505050565b60006107c660085490565b82106108295760405162461bcd60e51b815260206004820152602c60248201527f455243373231456e756d657261626c653a20676c6f62616c20696e646578206f60448201526b7574206f6620626f756e647360a01b6064820152608401610591565b6008828154811061083c5761083c611d10565b90600052602060002001549050919050565b610856610c5c565b805161086990600b90602084019061187f565b5050565b6000818152600260205260408120546001600160a01b0316806104435760405162461bcd60e51b8152602060048201526018602482015277115490cdcc8c4e881a5b9d985b1a59081d1bdad95b88125160421b6044820152606401610591565b6108d5610c5c565b60006108e060085490565b60105490915060ff16156108f357600080fd5b600e54610901826001611d55565b111561090c57600080fd5b6108698261091b836001611d55565b610f73565b60006001600160a01b03821661098a5760405162461bcd60e51b815260206004820152602960248201527f4552433732313a2061646472657373207a65726f206973206e6f7420612076616044820152683634b21037bbb732b960b91b6064820152608401610591565b506001600160a01b031660009081526003602052604090205490565b6109ae610c5c565b6109b86000610f8d565b565b60606001805461047390611c89565b610869338383610fdf565b6109de3383610d83565b6109fa5760405162461bcd60e51b815260040161059190611cc3565b610a06848484846110ad565b50505050565b600c8054610a1990611c89565b80601f0160208091040260200160405190810160405280929190818152602001828054610a4590611c89565b8015610a925780601f10610a6757610100808354040283529160200191610a92565b820191906000526020600020905b815481529060010190602001808311610a7557829003601f168201915b505050505081565b6000818152600260205260409020546060906001600160a01b0316610b195760405162461bcd60e51b815260206004820152602f60248201527f4552433732314d657461646174613a2055524920717565727920666f72206e6f60448201526e3732bc34b9ba32b73a103a37b5b2b760891b6064820152608401610591565b6000610b236110e0565b90506000815111610b435760405180602001604052806000815250610b71565b80610b4d846110ef565b600c604051602001610b6193929190611d6d565b6040516020818303038152906040525b9392505050565b610b80610c5c565b805161086990600c90602084019061187f565b610b9b610c5c565b6001600160a01b038116610c005760405162461bcd60e51b815260206004820152602660248201527f4f776e61626c653a206e6577206f776e657220697320746865207a65726f206160448201526564647265737360d01b6064820152608401610591565b610c0981610f8d565b50565b60006001600160e01b031982166380ac58cd60e01b1480610c3d57506001600160e01b03198216635b5e139f60e01b145b8061044357506301ffc9a760e01b6001600160e01b0319831614610443565b600a546001600160a01b031633146109b85760405162461bcd60e51b815260206004820181905260248201527f4f776e61626c653a2063616c6c6572206973206e6f7420746865206f776e65726044820152606401610591565b6000818152600260205260409020546001600160a01b0316610c095760405162461bcd60e51b8152602060048201526018602482015277115490cdcc8c4e881a5b9d985b1a59081d1bdad95b88125160421b6044820152606401610591565b600081815260046020526040902080546001600160a01b0319166001600160a01b0384169081179091558190610d4a8261086d565b6001600160a01b03167f8c5be1e5ebec7d5bd14f71427d1e84f3dd0314c0f7b2291e5b200ac8c7c3b92560405160405180910390a45050565b600080610d8f8361086d565b9050806001600160a01b0316846001600160a01b03161480610dd657506001600160a01b0380821660009081526005602090815260408083209388168352929052205460ff165b80610dfa5750836001600160a01b0316610def846104f6565b6001600160a01b0316145b949350505050565b826001600160a01b0316610e158261086d565b6001600160a01b031614610e3b5760405162461bcd60e51b815260040161059190611e30565b6001600160a01b038216610e9d5760405162461bcd60e51b8152602060048201526024808201527f4552433732313a207472616e7366657220746f20746865207a65726f206164646044820152637265737360e01b6064820152608401610591565b610eaa8383836001611182565b826001600160a01b0316610ebd8261086d565b6001600160a01b031614610ee35760405162461bcd60e51b815260040161059190611e30565b600081815260046020908152604080832080546001600160a01b03199081169091556001600160a01b0387811680865260038552838620805460001901905590871680865283862080546001019055868652600290945282852080549092168417909155905184937fddf252ad1be2c89b69c2b068fc378daa952ba7f163c4a11628f55a4df523b3ef91a4505050565b6108698282604051806020016040528060008152506112c2565b600a80546001600160a01b038381166001600160a01b0319831681179093556040519116919082907f8be0079c531659141344cd1fd0a4f28419497f9722a3daafe3b4186f6b6457e090600090a35050565b816001600160a01b0316836001600160a01b0316036110405760405162461bcd60e51b815260206004820152601960248201527f4552433732313a20617070726f766520746f2063616c6c6572000000000000006044820152606401610591565b6001600160a01b03838116600081815260056020908152604080832094871680845294825291829020805460ff191686151590811790915591519182527f17307eab39ab6107e8899845ad3d59bd9653f200f220920489ca2b5937696c31910160405180910390a3505050565b6110b8848484610e02565b6110c4848484846112f5565b610a065760405162461bcd60e51b815260040161059190611e75565b6060600b805461047390611c89565b606060006110fc836113f6565b600101905060008167ffffffffffffffff81111561111c5761111c611adb565b6040519080825280601f01601f191660200182016040528015611146576020820181803683370190505b5090508181016020015b600019016f181899199a1a9b1b9c1cb0b131b232b360811b600a86061a8153600a850494508461115057509392505050565b61118e848484846114ce565b60018111156111fd5760405162461bcd60e51b815260206004820152603560248201527f455243373231456e756d657261626c653a20636f6e7365637574697665207472604482015274185b9cd9995c9cc81b9bdd081cdd5c1c1bdc9d1959605a1b6064820152608401610591565b816001600160a01b0385166112595761125481600880546000838152600960205260408120829055600182018355919091527ff3f7a9fe364faab93b216da50a3214154f22a0a2b415b23a84c8169e8b636ee30155565b61127c565b836001600160a01b0316856001600160a01b03161461127c5761127c8582611556565b6001600160a01b03841661129857611293816115f3565b6112bb565b846001600160a01b0316846001600160a01b0316146112bb576112bb84826116a2565b5050505050565b6112cc83836116e6565b6112d960008484846112f5565b6106325760405162461bcd60e51b815260040161059190611e75565b60006001600160a01b0384163b156113eb57604051630a85bd0160e11b81526001600160a01b0385169063150b7a0290611339903390899088908890600401611ec7565b6020604051808303816000875af1925050508015611374575060408051601f3d908101601f1916820190925261137191810190611f04565b60015b6113d1573d8080156113a2576040519150601f19603f3d011682016040523d82523d6000602084013e6113a7565b606091505b5080516000036113c95760405162461bcd60e51b815260040161059190611e75565b805181602001fd5b6001600160e01b031916630a85bd0160e11b149050610dfa565b506001949350505050565b60008072184f03e93ff9f4daa797ed6e38ed64bf6a1f0160401b83106114355772184f03e93ff9f4daa797ed6e38ed64bf6a1f0160401b830492506040015b6d04ee2d6d415b85acef81000000008310611461576d04ee2d6d415b85acef8100000000830492506020015b662386f26fc10000831061147f57662386f26fc10000830492506010015b6305f5e1008310611497576305f5e100830492506008015b61271083106114ab57612710830492506004015b606483106114bd576064830492506002015b600a83106104435760010192915050565b6001811115610a06576001600160a01b03841615611514576001600160a01b0384166000908152600360205260408120805483929061150e908490611f21565b90915550505b6001600160a01b03831615610a06576001600160a01b0383166000908152600360205260408120805483929061154b908490611d55565b909155505050505050565b6000600161156384610920565b61156d9190611f21565b6000838152600760205260409020549091508082146115c0576001600160a01b03841660009081526006602090815260408083208584528252808320548484528184208190558352600790915290208190555b5060009182526007602090815260408084208490556001600160a01b039094168352600681528383209183525290812055565b60085460009061160590600190611f21565b6000838152600960205260408120546008805493945090928490811061162d5761162d611d10565b90600052602060002001549050806008838154811061164e5761164e611d10565b600091825260208083209091019290925582815260099091526040808220849055858252812055600880548061168657611686611f38565b6001900381819060005260206000200160009055905550505050565b60006116ad83610920565b6001600160a01b039093166000908152600660209081526040808320868452825280832085905593825260079052919091209190915550565b6001600160a01b03821661173c5760405162461bcd60e51b815260206004820181905260248201527f4552433732313a206d696e7420746f20746865207a65726f20616464726573736044820152606401610591565b6000818152600260205260409020546001600160a01b0316156117a15760405162461bcd60e51b815260206004820152601c60248201527f4552433732313a20746f6b656e20616c7265616479206d696e746564000000006044820152606401610591565b6117af600083836001611182565b6000818152600260205260409020546001600160a01b0316156118145760405162461bcd60e51b815260206004820152601c60248201527f4552433732313a20746f6b656e20616c7265616479206d696e746564000000006044820152606401610591565b6001600160a01b038216600081815260036020908152604080832080546001019055848352600290915280822080546001600160a01b0319168417905551839291907fddf252ad1be2c89b69c2b068fc378daa952ba7f163c4a11628f55a4df523b3ef908290a45050565b82805461188b90611c89565b90600052602060002090601f0160209004810192826118ad57600085556118f3565b82601f106118c657805160ff19168380011785556118f3565b828001600101855582156118f3579182015b828111156118f35782518255916020019190600101906118d8565b506118ff929150611903565b5090565b5b808211156118ff5760008155600101611904565b6001600160e01b031981168114610c0957600080fd5b60006020828403121561194057600080fd5b8135610b7181611918565b8035801515811461195b57600080fd5b919050565b60006020828403121561197257600080fd5b610b718261194b565b60005b8381101561199657818101518382015260200161197e565b83811115610a065750506000910152565b600081518084526119bf81602086016020860161197b565b601f01601f19169290920160200192915050565b602081526000610b7160208301846119a7565b6000602082840312156119f857600080fd5b5035919050565b80356001600160a01b038116811461195b57600080fd5b60008060408385031215611a2957600080fd5b611a32836119ff565b946020939093013593505050565b600080600060608486031215611a5557600080fd5b611a5e846119ff565b9250611a6c602085016119ff565b9150604084013590509250925092565b600060208284031215611a8e57600080fd5b610b71826119ff565b6020808252825182820181905260009190848201906040850190845b81811015611acf57835183529284019291840191600101611ab3565b50909695505050505050565b634e487b7160e01b600052604160045260246000fd5b600067ffffffffffffffff80841115611b0c57611b0c611adb565b604051601f8501601f19908116603f01168101908282118183101715611b3457611b34611adb565b81604052809350858152868686011115611b4d57600080fd5b858560208301376000602087830101525050509392505050565b600060208284031215611b7957600080fd5b813567ffffffffffffffff811115611b9057600080fd5b8201601f81018413611ba157600080fd5b610dfa84823560208401611af1565b60008060408385031215611bc357600080fd5b611bcc836119ff565b9150611bda6020840161194b565b90509250929050565b60008060008060808587031215611bf957600080fd5b611c02856119ff565b9350611c10602086016119ff565b925060408501359150606085013567ffffffffffffffff811115611c3357600080fd5b8501601f81018713611c4457600080fd5b611c5387823560208401611af1565b91505092959194509250565b60008060408385031215611c7257600080fd5b611c7b836119ff565b9150611bda602084016119ff565b600181811c90821680611c9d57607f821691505b602082108103611cbd57634e487b7160e01b600052602260045260246000fd5b50919050565b6020808252602d908201527f4552433732313a2063616c6c6572206973206e6f7420746f6b656e206f776e6560408201526c1c881bdc88185c1c1c9bdd9959609a1b606082015260800190565b634e487b7160e01b600052603260045260246000fd5b634e487b7160e01b600052601160045260246000fd5b600060018201611d4e57611d4e611d26565b5060010190565b60008219821115611d6857611d68611d26565b500190565b600084516020611d808285838a0161197b565b855191840191611d938184848a0161197b565b8554920191600090600181811c9080831680611db057607f831692505b8583108103611dcd57634e487b7160e01b85526022600452602485fd5b808015611de15760018114611df257611e1f565b60ff19851688528388019550611e1f565b60008b81526020902060005b85811015611e175781548a820152908401908801611dfe565b505083880195505b50939b9a5050505050505050505050565b60208082526025908201527f4552433732313a207472616e736665722066726f6d20696e636f72726563742060408201526437bbb732b960d91b606082015260800190565b60208082526032908201527f4552433732313a207472616e7366657220746f206e6f6e20455243373231526560408201527131b2b4bb32b91034b6b83632b6b2b73a32b960711b606082015260800190565b6001600160a01b0385811682528416602082015260408101839052608060608201819052600090611efa908301846119a7565b9695505050505050565b600060208284031215611f1657600080fd5b8151610b7181611918565b600082821015611f3357611f33611d26565b500390565b634e487b7160e01b600052603160045260246000fdfea264697066735822122050f7b22de595e76d88b1bf102ca71320f0fd98408b6db1a9201d8812189c56dd64736f6c634300080d0033a2646970667358221220374c6ff99e4108a405d97f8bb8ac4e5ea5638646bc6329aa566cc3c7f3833ea164736f6c634300080d0033",
  "devdoc": {
    "kind": "dev",
    "methods": {
      "owner()": {
        "details": "Returns the address of the current owner."
      },
      "renounceOwnership()": {
        "details": "Leaves the contract without owner. It will not be possible to call `onlyOwner` functions anymore. Can only be called by the current owner. NOTE: Renouncing ownership will leave the contract without an owner, thereby removing any functionality that is only available to the owner."
      },
      "transferOwnership(address)": {
        "details": "Transfers ownership of the contract to a new account (`newOwner`). Can only be called by the current owner."
      }
    },
    "version": 1
  },
  "userdoc": {
    "kind": "user",
    "methods": {},
    "version": 1
  },
  "storageLayout": {
    "storage": [
      {
        "astId": 7,
        "contract": "contracts/facets/BadgeFacet.sol:BadgeFacet",
        "label": "_owner",
        "offset": 0,
        "slot": "0",
        "type": "t_address"
      },
      {
        "astId": 8715,
        "contract": "contracts/facets/BadgeFacet.sol:BadgeFacet",
        "label": "proofs",
        "offset": 0,
        "slot": "1",
        "type": "t_mapping(t_address,t_mapping(t_uint64,t_bool))"
      },
      {
        "astId": 8720,
        "contract": "contracts/facets/BadgeFacet.sol:BadgeFacet",
        "label": "requestQueries",
        "offset": 0,
        "slot": "2",
        "type": "t_mapping(t_uint64,t_struct(CircuitQuery)6829_storage)"
      },
      {
        "astId": 8725,
        "contract": "contracts/facets/BadgeFacet.sol:BadgeFacet",
        "label": "requestValidators",
        "offset": 0,
        "slot": "3",
        "type": "t_mapping(t_uint64,t_contract(ICircuitValidator)6870)"
      },
      {
        "astId": 8728,
        "contract": "contracts/facets/BadgeFacet.sol:BadgeFacet",
        "label": "supportedRequests",
        "offset": 0,
        "slot": "4",
        "type": "t_array(t_uint64)dyn_storage"
      },
      {
        "astId": 5262,
        "contract": "contracts/facets/BadgeFacet.sol:BadgeFacet",
        "label": "idToAddress",
        "offset": 0,
        "slot": "5",
        "type": "t_mapping(t_uint256,t_address)"
      },
      {
        "astId": 5266,
        "contract": "contracts/facets/BadgeFacet.sol:BadgeFacet",
        "label": "addressToId",
        "offset": 0,
        "slot": "6",
        "type": "t_mapping(t_address,t_uint256)"
      }
    ],
    "types": {
      "t_address": {
        "encoding": "inplace",
        "label": "address",
        "numberOfBytes": "20"
      },
      "t_array(t_uint256)dyn_storage": {
        "base": "t_uint256",
        "encoding": "dynamic_array",
        "label": "uint256[]",
        "numberOfBytes": "32"
      },
      "t_array(t_uint64)dyn_storage": {
        "base": "t_uint64",
        "encoding": "dynamic_array",
        "label": "uint64[]",
        "numberOfBytes": "32"
      },
      "t_bool": {
        "encoding": "inplace",
        "label": "bool",
        "numberOfBytes": "1"
      },
      "t_contract(ICircuitValidator)6870": {
        "encoding": "inplace",
        "label": "contract ICircuitValidator",
        "numberOfBytes": "20"
      },
      "t_mapping(t_address,t_mapping(t_uint64,t_bool))": {
        "encoding": "mapping",
        "key": "t_address",
        "label": "mapping(address => mapping(uint64 => bool))",
        "numberOfBytes": "32",
        "value": "t_mapping(t_uint64,t_bool)"
      },
      "t_mapping(t_address,t_uint256)": {
        "encoding": "mapping",
        "key": "t_address",
        "label": "mapping(address => uint256)",
        "numberOfBytes": "32",
        "value": "t_uint256"
      },
      "t_mapping(t_uint256,t_address)": {
        "encoding": "mapping",
        "key": "t_uint256",
        "label": "mapping(uint256 => address)",
        "numberOfBytes": "32",
        "value": "t_address"
      },
      "t_mapping(t_uint64,t_bool)": {
        "encoding": "mapping",
        "key": "t_uint64",
        "label": "mapping(uint64 => bool)",
        "numberOfBytes": "32",
        "value": "t_bool"
      },
      "t_mapping(t_uint64,t_contract(ICircuitValidator)6870)": {
        "encoding": "mapping",
        "key": "t_uint64",
        "label": "mapping(uint64 => contract ICircuitValidator)",
        "numberOfBytes": "32",
        "value": "t_contract(ICircuitValidator)6870"
      },
      "t_mapping(t_uint64,t_struct(CircuitQuery)6829_storage)": {
        "encoding": "mapping",
        "key": "t_uint64",
        "label": "mapping(uint64 => struct ICircuitValidator.CircuitQuery)",
        "numberOfBytes": "32",
        "value": "t_struct(CircuitQuery)6829_storage"
      },
      "t_string_storage": {
        "encoding": "bytes",
        "label": "string",
        "numberOfBytes": "32"
      },
      "t_struct(CircuitQuery)6829_storage": {
        "encoding": "inplace",
        "label": "struct ICircuitValidator.CircuitQuery",
        "members": [
          {
            "astId": 6819,
            "contract": "contracts/facets/BadgeFacet.sol:BadgeFacet",
            "label": "schema",
            "offset": 0,
            "slot": "0",
            "type": "t_uint256"
          },
          {
            "astId": 6821,
            "contract": "contracts/facets/BadgeFacet.sol:BadgeFacet",
            "label": "slotIndex",
            "offset": 0,
            "slot": "1",
            "type": "t_uint256"
          },
          {
            "astId": 6823,
            "contract": "contracts/facets/BadgeFacet.sol:BadgeFacet",
            "label": "operator",
            "offset": 0,
            "slot": "2",
            "type": "t_uint256"
          },
          {
            "astId": 6826,
            "contract": "contracts/facets/BadgeFacet.sol:BadgeFacet",
            "label": "value",
            "offset": 0,
            "slot": "3",
            "type": "t_array(t_uint256)dyn_storage"
          },
          {
            "astId": 6828,
            "contract": "contracts/facets/BadgeFacet.sol:BadgeFacet",
            "label": "circuitId",
            "offset": 0,
            "slot": "4",
            "type": "t_string_storage"
          }
        ],
        "numberOfBytes": "160"
      },
      "t_uint256": {
        "encoding": "inplace",
        "label": "uint256",
        "numberOfBytes": "32"
      },
      "t_uint64": {
        "encoding": "inplace",
        "label": "uint64",
        "numberOfBytes": "8"
      }
    }
  }
}