{
  "address": "0x7a6E91C3C4fCB9157A27EB901210Aa1Df9D05B45",
  "abi": [
    {
      "anonymous": false,
      "inputs": [
        {
          "components": [
            {
              "internalType": "uint256[3]",
              "name": "requiredQuests",
              "type": "uint256[3]"
            },
            {
              "internalType": "uint256",
              "name": "engagePointsThreshold",
              "type": "uint256"
            },
            {
              "internalType": "uint256",
              "name": "badgePrice",
              "type": "uint256"
            },
            {
              "internalType": "string",
              "name": "name",
              "type": "string"
            },
            {
              "internalType": "address",
              "name": "NFT",
              "type": "address"
            },
            {
              "internalType": "uint256",
              "name": "groupId",
              "type": "uint256"
            }
          ],
          "indexed": false,
          "internalType": "struct LibBadgeFacet.BadgeData",
          "name": "badgeData",
          "type": "tuple"
        },
        {
          "indexed": false,
          "internalType": "string",
          "name": "nftSymbol",
          "type": "string"
        },
        {
          "indexed": false,
          "internalType": "string",
          "name": "nftInitBaseURI",
          "type": "string"
        },
        {
          "indexed": false,
          "internalType": "uint256",
          "name": "id",
          "type": "uint256"
        }
      ],
      "name": "BadgeCreated",
      "type": "event"
    },
    {
      "inputs": [
        {
          "components": [
            {
              "internalType": "uint256[3]",
              "name": "requiredQuests",
              "type": "uint256[3]"
            },
            {
              "internalType": "uint256",
              "name": "engagePointsThreshold",
              "type": "uint256"
            },
            {
              "internalType": "uint256",
              "name": "badgePrice",
              "type": "uint256"
            },
            {
              "internalType": "string",
              "name": "name",
              "type": "string"
            },
            {
              "internalType": "address",
              "name": "NFT",
              "type": "address"
            },
            {
              "internalType": "uint256",
              "name": "groupId",
              "type": "uint256"
            }
          ],
          "internalType": "struct LibBadgeFacet.BadgeData",
          "name": "_badgeData",
          "type": "tuple"
        },
        {
          "internalType": "string",
          "name": "_nftSymbol",
          "type": "string"
        },
        {
          "internalType": "string",
          "name": "_nftInitBaseURI",
          "type": "string"
        }
      ],
      "name": "addBadge",
      "outputs": [],
      "stateMutability": "nonpayable",
      "type": "function"
    },
    {
      "inputs": [
        {
          "internalType": "uint256",
          "name": "_badgeId",
          "type": "uint256"
        }
      ],
      "name": "claimBadge",
      "outputs": [],
      "stateMutability": "payable",
      "type": "function"
    },
    {
      "inputs": [
        {
          "internalType": "uint256",
          "name": "_badgeId",
          "type": "uint256"
        }
      ],
      "name": "getBadge",
      "outputs": [
        {
          "components": [
            {
              "internalType": "uint256[3]",
              "name": "requiredQuests",
              "type": "uint256[3]"
            },
            {
              "internalType": "uint256",
              "name": "engagePointsThreshold",
              "type": "uint256"
            },
            {
              "internalType": "uint256",
              "name": "badgePrice",
              "type": "uint256"
            },
            {
              "internalType": "string",
              "name": "name",
              "type": "string"
            },
            {
              "internalType": "address",
              "name": "NFT",
              "type": "address"
            },
            {
              "internalType": "uint256",
              "name": "groupId",
              "type": "uint256"
            }
          ],
          "internalType": "struct LibBadgeFacet.BadgeData",
          "name": "",
          "type": "tuple"
        }
      ],
      "stateMutability": "view",
      "type": "function"
    },
    {
      "inputs": [
        {
          "internalType": "uint256",
          "name": "_groupId",
          "type": "uint256"
        }
      ],
      "name": "isMemberOfGroup",
      "outputs": [
        {
          "internalType": "bool",
          "name": "",
          "type": "bool"
        }
      ],
      "stateMutability": "view",
      "type": "function"
    }
  ],
  "transactionHash": "0xd3f692a85273f51639cd83218adaba3760d64d7bb7bd3eae3adb9d6a8a7a2b23",
  "args": [],
  "numDeployments": 1,
  "solcInputHash": "2a64d8e866688e10099570b513f4ff07",
  "bytecode": "0x608060405234801561001057600080fd5b5061375d806100206000396000f3fe608060405260043610620000445760003560e01c8063234151351462000049578063871b34d514620000625780638d8386221462000087578063941eac4814620000c4575b600080fd5b620000606200005a36600462000d2d565b620000fa565b005b3480156200006f57600080fd5b50620000606200008136600462000ead565b62000425565b3480156200009457600080fd5b50620000ac620000a636600462000d2d565b6200074b565b604051620000bb919062001052565b60405180910390f35b348015620000d157600080fd5b50620000e9620000e336600462000d2d565b620008b3565b6040519015158152602001620000bb565b60008181527f1d4693b93f98f936b8f6057327b59bd2dcbe13c2640e907a498baa18561734456020526040808220815160608101928390527f1d4693b93f98f936b8f6057327b59bd2dcbe13c2640e907a498baa1856173444937f7c7557f95a2f97ba23b20056e448af54f71e639e66ae0b4d106fd6235e42a9099390929060039082845b8154815260200190600101908083116200017f575050505050905060005b60038110156200027257818160038110620001bc57620001bc620010e8565b6020020151156200025d57826004016000838360038110620001e257620001e2620010e8565b602090810291909101518252818101929092526040908101600090812033825290925290205460ff166200025d5760405162461bcd60e51b815260206004820181905260248201527f7573657220686173206e6f7420636f6d706c65746520616c6c2071756573747360448201526064015b60405180910390fd5b806200026981620010fe565b9150506200019d565b5060008481526001840160205260409020600301548015620003305760008581526001850160209081526040808320600701548352600586018252808320338452909152902054811115620003305760405162461bcd60e51b815260206004820152603960248201527f7573657220646f65736e74206861766520656e6f75676820656e67616765207060448201527f6f696e747320746f20636c61696d207468697320626164676500000000000000606482015260840162000254565b60008581526001850160205260409020600401548015620003ac5780341015620003ac5760405162461bcd60e51b815260206004820152602660248201527f6e6f7420656e6f7567687420657468657220746f206f627461696e207468697360448201526520626164676560d01b606482015260840162000254565b6000868152600186016020526040908190206006015490516335313c2160e11b81523360048201526001600160a01b0390911690636a62784290602401600060405180830381600087803b1580156200040457600080fd5b505af115801562000419573d6000803e3d6000fd5b50505050505050505050565b7f1d4693b93f98f936b8f6057327b59bd2dcbe13c2640e907a498baa18561734448054600101815560a08601517f7c7557f95a2f97ba23b20056e448af54f71e639e66ae0b4d106fd6235e42a90990620004809033620008c7565b6200048a62000be4565b60005b60038110156200052d5788516000908260038110620004b057620004b0620010e8565b60200201511115620004e3578851620004e3908260038110620004d757620004d7620010e8565b602002015133620009c6565b88518160038110620004f957620004f9620010e8565b6020020151828260038110620005135762000513620010e8565b6020020152806200052481620010fe565b9150506200048d565b50806001840160006200053e865490565b815260208101919091526040016000206200055b91600362000c02565b50602088015160018401600062000570865490565b81526020019081526020016000206003018190555087604001518360010160006200059c866000015490565b8152602001908152602001600020600401819055508760600151836001016000620005c8866000015490565b81526020019081526020016000206005019080519060200190620005ee92919062000c45565b5060a088015160018401600062000603865490565b8152602001908152602001600020600701819055508760600151878787876040516200062f9062000cc1565b6200063f9594939291906200114f565b604051809103906000f0801580156200065c573d6000803e3d6000fd5b506001840160006200066c865490565b81526020808201929092526040908101600090812060060180546001600160a01b0319166001600160a01b03959095169490941790935560a08b015183526002860190915281205490819003620006d657835460a08a015160009081526002860160205260409020555b7f77d46edce93b129eb0b18b55bdacd5ea75e844ae484eb9f546e8bb57ba4e70c560018501600062000706875490565b815260200190815260200160002089898989620007248a6000015490565b60405162000738969594939291906200127f565b60405180910390a1505050505050505050565b6200075562000ccf565b60008281527f1d4693b93f98f936b8f6057327b59bd2dcbe13c2640e907a498baa185617344560205260409081902081516101208101928390527f1d4693b93f98f936b8f6057327b59bd2dcbe13c2640e907a498baa185617344492909190829060c0820190839060039082845b815481526020019060010190808311620007c35750505050508152602001600382015481526020016004820154815260200160058201805462000806906200119c565b80601f016020809104026020016040519081016040528092919081815260200182805462000834906200119c565b8015620008855780601f10620008595761010080835404028352916020019162000885565b820191906000526020600020905b8154815290600101906020018083116200086757829003601f168201915b505050918352505060068201546001600160a01b031660208201526007909101546040909101529392505050565b6000620008c1338362000aa8565b92915050565b81600003620009105760405162461bcd60e51b8152602060048201526014602482015273067726f75702069642063616e6e6f7420626520360641b604482015260640162000254565b6001600160a01b038116620009645760405162461bcd60e51b815260206004820152601960248201527806f776e657220616464726573732063616e6e6f74206265203603c1b604482015260640162000254565b60008281527f7c7557f95a2f97ba23b20056e448af54f71e639e66ae0b4d106fd6235e42a90b60205260409020600101546001600160a01b03828116911614620009c25760405162461bcd60e51b8152600401620002549062001342565b5050565b6001600160a01b03811662000a1a5760405162461bcd60e51b815260206004820152601960248201527806f776e657220616464726573732063616e6e6f74206265203603c1b604482015260640162000254565b60008281527f7c7557f95a2f97ba23b20056e448af54f71e639e66ae0b4d106fd6235e42a90c6020908152604080832060019081015484527f7c7557f95a2f97ba23b20056e448af54f71e639e66ae0b4d106fd6235e42a90b90925290912001546001600160a01b03828116911614620009c25760405162461bcd60e51b8152600401620002549062001342565b60008181527f1d4693b93f98f936b8f6057327b59bd2dcbe13c2640e907a498baa1856173446602090815260408083205483527f1d4693b93f98f936b8f6057327b59bd2dcbe13c2640e907a498baa185617344582528083206006015481516370a0823160e01b81526001600160a01b0387811660048301529251859493909216926370a08231926024808401938290030181865afa15801562000b50573d6000803e3d6000fd5b505050506040513d601f19601f8201168201806040525081019062000b76919062001386565b1162000bdb5760405162461bcd60e51b815260206004820152602d60248201527f5573657220646f65736e7420686f6c64206d61696e206261646765206f66207460448201526c68697320636f6d6d756e69747960981b606482015260840162000254565b50600192915050565b60405180606001604052806003906020820280368337509192915050565b826003810192821562000c33579160200282015b8281111562000c3357825182559160200191906001019062000c16565b5062000c4192915062000d16565b5090565b82805462000c53906200119c565b90600052602060002090601f01602090048101928262000c77576000855562000c33565b82601f1062000c9257805160ff191683800117855562000c33565b8280016001018555821562000c33579182018281111562000c3357825182559160200191906001019062000c16565b61238780620013a183390190565b6040518060c0016040528062000ce462000be4565b815260200160008152602001600081526020016060815260200160006001600160a01b03168152602001600081525090565b5b8082111562000c41576000815560010162000d17565b60006020828403121562000d4057600080fd5b5035919050565b634e487b7160e01b600052604160045260246000fd5b60405160c0810167ffffffffffffffff8111828210171562000d835762000d8362000d47565b60405290565b6040516060810167ffffffffffffffff8111828210171562000d835762000d8362000d47565b600082601f83011262000dc157600080fd5b813567ffffffffffffffff8082111562000ddf5762000ddf62000d47565b604051601f8301601f19908116603f0116810190828211818310171562000e0a5762000e0a62000d47565b8160405283815286602085880101111562000e2457600080fd5b836020870160208301376000602085830101528094505050505092915050565b80356001600160a01b038116811462000e5c57600080fd5b919050565b60008083601f84011262000e7457600080fd5b50813567ffffffffffffffff81111562000e8d57600080fd5b60208301915083602082850101111562000ea657600080fd5b9250929050565b60008060008060006060868803121562000ec657600080fd5b853567ffffffffffffffff8082111562000edf57600080fd5b90870190610100828a03121562000ef557600080fd5b62000eff62000d5d565b89601f84011262000f0f57600080fd5b62000f1962000d89565b80606085018c81111562000f2c57600080fd5b855b8181101562000f4857803584526020938401930162000f2e565b50908352356020830152506080830135604082015260a08301358281111562000f7057600080fd5b62000f7e8b82860162000daf565b60608301525062000f9260c0840162000e44565b608082015260e083013560a082015280975050602088013591508082111562000fba57600080fd5b62000fc889838a0162000e61565b9096509450604088013591508082111562000fe257600080fd5b5062000ff18882890162000e61565b969995985093965092949392505050565b6000815180845260005b818110156200102a576020818501810151868301820152016200100c565b818111156200103d576000602083870101525b50601f01601f19169290920160200192915050565b6020808252825160009190828483015b60038210156200108357825181529183019160019190910190830162001062565b5050508301516080830152604083015160a0830152606083015161010060c08401819052620010b761012085018362001002565b91506080850151620010d460e08601826001600160a01b03169052565b5060a0949094015192909301919091525090565b634e487b7160e01b600052603260045260246000fd5b6000600182016200111f57634e487b7160e01b600052601160045260246000fd5b5060010190565b81835281816020850137506000828201602090810191909152601f909101601f19169091010190565b60608152600062001164606083018862001002565b82810360208401526200117981878962001126565b905082810360408401526200119081858762001126565b98975050505050505050565b600181811c90821680620011b157607f821691505b602082108103620011d257634e487b7160e01b600052602260045260246000fd5b50919050565b8054600090600181811c9080831680620011f357607f831692505b602080841082036200121557634e487b7160e01b600052602260045260246000fd5b83885260208801828015620012335760018114620012455762001272565b60ff1987168252828201975062001272565b60008981526020902060005b878110156200126c5781548482015290860190840162001251565b83019850505b5050505050505092915050565b608080825260009088908301825b6003811015620012ae5782548252600192830192602090920191016200128d565b505050600388015460e0830152600488015461010080840191909152610120830152620012e3610180830160058a01620011d8565b60068901546001600160a01b0316610140840152600789015461016084015282810360208401526200131781888a62001126565b905082810360408401526200132e81868862001126565b915050826060830152979650505050505050565b60208082526024908201527f63616c6c6572206973206e6f7420746865206f776e6572206f662074686520676040820152630726f75760e41b606082015260800190565b6000602082840312156200139957600080fd5b505191905056fe60c06040526005608081905264173539b7b760d91b60a09081526200002891600c9190620001b3565b5066b1a2bc2ec50000600d55600019600e556001600f556010805460ff191690553480156200005657600080fd5b506040516200238738038062002387833981016040819052620000799162000326565b82518390839062000092906000906020850190620001b3565b508051620000a8906001906020840190620001b3565b505050620000c5620000bf620000d960201b60201c565b620000dd565b620000d0816200012f565b505050620003f3565b3390565b600a80546001600160a01b038381166001600160a01b0319831681179093556040519116919082907f8be0079c531659141344cd1fd0a4f28419497f9722a3daafe3b4186f6b6457e090600090a35050565b6200013962000152565b80516200014e90600b906020840190620001b3565b5050565b600a546001600160a01b03163314620001b15760405162461bcd60e51b815260206004820181905260248201527f4f776e61626c653a2063616c6c6572206973206e6f7420746865206f776e6572604482015260640160405180910390fd5b565b828054620001c190620003b7565b90600052602060002090601f016020900481019282620001e5576000855562000230565b82601f106200020057805160ff191683800117855562000230565b8280016001018555821562000230579182015b828111156200023057825182559160200191906001019062000213565b506200023e92915062000242565b5090565b5b808211156200023e576000815560010162000243565b634e487b7160e01b600052604160045260246000fd5b600082601f8301126200028157600080fd5b81516001600160401b03808211156200029e576200029e62000259565b604051601f8301601f19908116603f01168101908282118183101715620002c957620002c962000259565b81604052838152602092508683858801011115620002e657600080fd5b600091505b838210156200030a5785820183015181830184015290820190620002eb565b838211156200031c5760008385830101525b9695505050505050565b6000806000606084860312156200033c57600080fd5b83516001600160401b03808211156200035457600080fd5b62000362878388016200026f565b945060208601519150808211156200037957600080fd5b62000387878388016200026f565b935060408601519150808211156200039e57600080fd5b50620003ad868287016200026f565b9150509250925092565b600181811c90821680620003cc57607f821691505b602082108103620003ed57634e487b7160e01b600052602260045260246000fd5b50919050565b611f8480620004036000396000f3fe608060405234801561001057600080fd5b50600436106101cf5760003560e01c80635c975abb11610104578063a22cb465116100a2578063d5abeb0111610071578063d5abeb01146103b3578063da3ef23f146103bc578063e985e9c5146103cf578063f2fde38b1461040b57600080fd5b8063a22cb46514610372578063b88d4fde14610385578063c668286214610398578063c87b56dd146103a057600080fd5b806370a08231116100de57806370a082311461033e578063715018a6146103515780638da5cb5b1461035957806395d89b411461036a57600080fd5b80635c975abb1461030b5780636352211e146103185780636a6278421461032b57600080fd5b8063239c70ae1161017157806342842e0e1161014b57806342842e0e146102b2578063438b6300146102c55780634f6ccce7146102e557806355f804b3146102f857600080fd5b8063239c70ae1461028357806323b872dd1461028c5780632f745c591461029f57600080fd5b8063081812fc116101ad578063081812fc14610226578063095ea7b31461025157806313faede61461026457806318160ddd1461027b57600080fd5b806301ffc9a7146101d457806302329a29146101fc57806306fdde0314610211575b600080fd5b6101e76101e236600461192e565b61041e565b60405190151581526020015b60405180910390f35b61020f61020a366004611960565b610449565b005b610219610464565b6040516101f391906119d3565b6102396102343660046119e6565b6104f6565b6040516001600160a01b0390911681526020016101f3565b61020f61025f366004611a16565b61051d565b61026d600d5481565b6040519081526020016101f3565b60085461026d565b61026d600f5481565b61020f61029a366004611a40565b610637565b61026d6102ad366004611a16565b610668565b61020f6102c0366004611a40565b6106fe565b6102d86102d3366004611a7c565b610719565b6040516101f39190611a97565b61026d6102f33660046119e6565b6107bb565b61020f610306366004611b67565b61084e565b6010546101e79060ff1681565b6102396103263660046119e6565b61086d565b61020f610339366004611a7c565b6108cd565b61026d61034c366004611a7c565b610920565b61020f6109a6565b600a546001600160a01b0316610239565b6102196109ba565b61020f610380366004611bb0565b6109c9565b61020f610393366004611be3565b6109d4565b610219610a0c565b6102196103ae3660046119e6565b610a9a565b61026d600e5481565b61020f6103ca366004611b67565b610b78565b6101e76103dd366004611c5f565b6001600160a01b03918216600090815260056020908152604080832093909416825291909152205460ff1690565b61020f610419366004611a7c565b610b93565b60006001600160e01b0319821663780e9d6360e01b1480610443575061044382610c0c565b92915050565b610451610c5c565b6010805460ff1916911515919091179055565b60606000805461047390611c89565b80601f016020809104026020016040519081016040528092919081815260200182805461049f90611c89565b80156104ec5780601f106104c1576101008083540402835291602001916104ec565b820191906000526020600020905b8154815290600101906020018083116104cf57829003601f168201915b5050505050905090565b600061050182610cb6565b506000908152600460205260409020546001600160a01b031690565b60006105288261086d565b9050806001600160a01b0316836001600160a01b03160361059a5760405162461bcd60e51b815260206004820152602160248201527f4552433732313a20617070726f76616c20746f2063757272656e74206f776e656044820152603960f91b60648201526084015b60405180910390fd5b336001600160a01b03821614806105b657506105b681336103dd565b6106285760405162461bcd60e51b815260206004820152603d60248201527f4552433732313a20617070726f76652063616c6c6572206973206e6f7420746f60448201527f6b656e206f776e6572206f7220617070726f76656420666f7220616c6c0000006064820152608401610591565b6106328383610d15565b505050565b6106413382610d83565b61065d5760405162461bcd60e51b815260040161059190611cc3565b610632838383610e02565b600061067383610920565b82106106d55760405162461bcd60e51b815260206004820152602b60248201527f455243373231456e756d657261626c653a206f776e657220696e646578206f7560448201526a74206f6620626f756e647360a81b6064820152608401610591565b506001600160a01b03919091166000908152600660209081526040808320938352929052205490565b610632838383604051806020016040528060008152506109d4565b6060600061072683610920565b905060008167ffffffffffffffff81111561074357610743611adb565b60405190808252806020026020018201604052801561076c578160200160208202803683370190505b50905060005b828110156107b3576107848582610668565b82828151811061079657610796611d10565b6020908102919091010152806107ab81611d3c565b915050610772565b509392505050565b60006107c660085490565b82106108295760405162461bcd60e51b815260206004820152602c60248201527f455243373231456e756d657261626c653a20676c6f62616c20696e646578206f60448201526b7574206f6620626f756e647360a01b6064820152608401610591565b6008828154811061083c5761083c611d10565b90600052602060002001549050919050565b610856610c5c565b805161086990600b90602084019061187f565b5050565b6000818152600260205260408120546001600160a01b0316806104435760405162461bcd60e51b8152602060048201526018602482015277115490cdcc8c4e881a5b9d985b1a59081d1bdad95b88125160421b6044820152606401610591565b6108d5610c5c565b60006108e060085490565b60105490915060ff16156108f357600080fd5b600e54610901826001611d55565b111561090c57600080fd5b6108698261091b836001611d55565b610f73565b60006001600160a01b03821661098a5760405162461bcd60e51b815260206004820152602960248201527f4552433732313a2061646472657373207a65726f206973206e6f7420612076616044820152683634b21037bbb732b960b91b6064820152608401610591565b506001600160a01b031660009081526003602052604090205490565b6109ae610c5c565b6109b86000610f8d565b565b60606001805461047390611c89565b610869338383610fdf565b6109de3383610d83565b6109fa5760405162461bcd60e51b815260040161059190611cc3565b610a06848484846110ad565b50505050565b600c8054610a1990611c89565b80601f0160208091040260200160405190810160405280929190818152602001828054610a4590611c89565b8015610a925780601f10610a6757610100808354040283529160200191610a92565b820191906000526020600020905b815481529060010190602001808311610a7557829003601f168201915b505050505081565b6000818152600260205260409020546060906001600160a01b0316610b195760405162461bcd60e51b815260206004820152602f60248201527f4552433732314d657461646174613a2055524920717565727920666f72206e6f60448201526e3732bc34b9ba32b73a103a37b5b2b760891b6064820152608401610591565b6000610b236110e0565b90506000815111610b435760405180602001604052806000815250610b71565b80610b4d846110ef565b600c604051602001610b6193929190611d6d565b6040516020818303038152906040525b9392505050565b610b80610c5c565b805161086990600c90602084019061187f565b610b9b610c5c565b6001600160a01b038116610c005760405162461bcd60e51b815260206004820152602660248201527f4f776e61626c653a206e6577206f776e657220697320746865207a65726f206160448201526564647265737360d01b6064820152608401610591565b610c0981610f8d565b50565b60006001600160e01b031982166380ac58cd60e01b1480610c3d57506001600160e01b03198216635b5e139f60e01b145b8061044357506301ffc9a760e01b6001600160e01b0319831614610443565b600a546001600160a01b031633146109b85760405162461bcd60e51b815260206004820181905260248201527f4f776e61626c653a2063616c6c6572206973206e6f7420746865206f776e65726044820152606401610591565b6000818152600260205260409020546001600160a01b0316610c095760405162461bcd60e51b8152602060048201526018602482015277115490cdcc8c4e881a5b9d985b1a59081d1bdad95b88125160421b6044820152606401610591565b600081815260046020526040902080546001600160a01b0319166001600160a01b0384169081179091558190610d4a8261086d565b6001600160a01b03167f8c5be1e5ebec7d5bd14f71427d1e84f3dd0314c0f7b2291e5b200ac8c7c3b92560405160405180910390a45050565b600080610d8f8361086d565b9050806001600160a01b0316846001600160a01b03161480610dd657506001600160a01b0380821660009081526005602090815260408083209388168352929052205460ff165b80610dfa5750836001600160a01b0316610def846104f6565b6001600160a01b0316145b949350505050565b826001600160a01b0316610e158261086d565b6001600160a01b031614610e3b5760405162461bcd60e51b815260040161059190611e30565b6001600160a01b038216610e9d5760405162461bcd60e51b8152602060048201526024808201527f4552433732313a207472616e7366657220746f20746865207a65726f206164646044820152637265737360e01b6064820152608401610591565b610eaa8383836001611182565b826001600160a01b0316610ebd8261086d565b6001600160a01b031614610ee35760405162461bcd60e51b815260040161059190611e30565b600081815260046020908152604080832080546001600160a01b03199081169091556001600160a01b0387811680865260038552838620805460001901905590871680865283862080546001019055868652600290945282852080549092168417909155905184937fddf252ad1be2c89b69c2b068fc378daa952ba7f163c4a11628f55a4df523b3ef91a4505050565b6108698282604051806020016040528060008152506112c2565b600a80546001600160a01b038381166001600160a01b0319831681179093556040519116919082907f8be0079c531659141344cd1fd0a4f28419497f9722a3daafe3b4186f6b6457e090600090a35050565b816001600160a01b0316836001600160a01b0316036110405760405162461bcd60e51b815260206004820152601960248201527f4552433732313a20617070726f766520746f2063616c6c6572000000000000006044820152606401610591565b6001600160a01b03838116600081815260056020908152604080832094871680845294825291829020805460ff191686151590811790915591519182527f17307eab39ab6107e8899845ad3d59bd9653f200f220920489ca2b5937696c31910160405180910390a3505050565b6110b8848484610e02565b6110c4848484846112f5565b610a065760405162461bcd60e51b815260040161059190611e75565b6060600b805461047390611c89565b606060006110fc836113f6565b600101905060008167ffffffffffffffff81111561111c5761111c611adb565b6040519080825280601f01601f191660200182016040528015611146576020820181803683370190505b5090508181016020015b600019016f181899199a1a9b1b9c1cb0b131b232b360811b600a86061a8153600a850494508461115057509392505050565b61118e848484846114ce565b60018111156111fd5760405162461bcd60e51b815260206004820152603560248201527f455243373231456e756d657261626c653a20636f6e7365637574697665207472604482015274185b9cd9995c9cc81b9bdd081cdd5c1c1bdc9d1959605a1b6064820152608401610591565b816001600160a01b0385166112595761125481600880546000838152600960205260408120829055600182018355919091527ff3f7a9fe364faab93b216da50a3214154f22a0a2b415b23a84c8169e8b636ee30155565b61127c565b836001600160a01b0316856001600160a01b03161461127c5761127c8582611556565b6001600160a01b03841661129857611293816115f3565b6112bb565b846001600160a01b0316846001600160a01b0316146112bb576112bb84826116a2565b5050505050565b6112cc83836116e6565b6112d960008484846112f5565b6106325760405162461bcd60e51b815260040161059190611e75565b60006001600160a01b0384163b156113eb57604051630a85bd0160e11b81526001600160a01b0385169063150b7a0290611339903390899088908890600401611ec7565b6020604051808303816000875af1925050508015611374575060408051601f3d908101601f1916820190925261137191810190611f04565b60015b6113d1573d8080156113a2576040519150601f19603f3d011682016040523d82523d6000602084013e6113a7565b606091505b5080516000036113c95760405162461bcd60e51b815260040161059190611e75565b805181602001fd5b6001600160e01b031916630a85bd0160e11b149050610dfa565b506001949350505050565b60008072184f03e93ff9f4daa797ed6e38ed64bf6a1f0160401b83106114355772184f03e93ff9f4daa797ed6e38ed64bf6a1f0160401b830492506040015b6d04ee2d6d415b85acef81000000008310611461576d04ee2d6d415b85acef8100000000830492506020015b662386f26fc10000831061147f57662386f26fc10000830492506010015b6305f5e1008310611497576305f5e100830492506008015b61271083106114ab57612710830492506004015b606483106114bd576064830492506002015b600a83106104435760010192915050565b6001811115610a06576001600160a01b03841615611514576001600160a01b0384166000908152600360205260408120805483929061150e908490611f21565b90915550505b6001600160a01b03831615610a06576001600160a01b0383166000908152600360205260408120805483929061154b908490611d55565b909155505050505050565b6000600161156384610920565b61156d9190611f21565b6000838152600760205260409020549091508082146115c0576001600160a01b03841660009081526006602090815260408083208584528252808320548484528184208190558352600790915290208190555b5060009182526007602090815260408084208490556001600160a01b039094168352600681528383209183525290812055565b60085460009061160590600190611f21565b6000838152600960205260408120546008805493945090928490811061162d5761162d611d10565b90600052602060002001549050806008838154811061164e5761164e611d10565b600091825260208083209091019290925582815260099091526040808220849055858252812055600880548061168657611686611f38565b6001900381819060005260206000200160009055905550505050565b60006116ad83610920565b6001600160a01b039093166000908152600660209081526040808320868452825280832085905593825260079052919091209190915550565b6001600160a01b03821661173c5760405162461bcd60e51b815260206004820181905260248201527f4552433732313a206d696e7420746f20746865207a65726f20616464726573736044820152606401610591565b6000818152600260205260409020546001600160a01b0316156117a15760405162461bcd60e51b815260206004820152601c60248201527f4552433732313a20746f6b656e20616c7265616479206d696e746564000000006044820152606401610591565b6117af600083836001611182565b6000818152600260205260409020546001600160a01b0316156118145760405162461bcd60e51b815260206004820152601c60248201527f4552433732313a20746f6b656e20616c7265616479206d696e746564000000006044820152606401610591565b6001600160a01b038216600081815260036020908152604080832080546001019055848352600290915280822080546001600160a01b0319168417905551839291907fddf252ad1be2c89b69c2b068fc378daa952ba7f163c4a11628f55a4df523b3ef908290a45050565b82805461188b90611c89565b90600052602060002090601f0160209004810192826118ad57600085556118f3565b82601f106118c657805160ff19168380011785556118f3565b828001600101855582156118f3579182015b828111156118f35782518255916020019190600101906118d8565b506118ff929150611903565b5090565b5b808211156118ff5760008155600101611904565b6001600160e01b031981168114610c0957600080fd5b60006020828403121561194057600080fd5b8135610b7181611918565b8035801515811461195b57600080fd5b919050565b60006020828403121561197257600080fd5b610b718261194b565b60005b8381101561199657818101518382015260200161197e565b83811115610a065750506000910152565b600081518084526119bf81602086016020860161197b565b601f01601f19169290920160200192915050565b602081526000610b7160208301846119a7565b6000602082840312156119f857600080fd5b5035919050565b80356001600160a01b038116811461195b57600080fd5b60008060408385031215611a2957600080fd5b611a32836119ff565b946020939093013593505050565b600080600060608486031215611a5557600080fd5b611a5e846119ff565b9250611a6c602085016119ff565b9150604084013590509250925092565b600060208284031215611a8e57600080fd5b610b71826119ff565b6020808252825182820181905260009190848201906040850190845b81811015611acf57835183529284019291840191600101611ab3565b50909695505050505050565b634e487b7160e01b600052604160045260246000fd5b600067ffffffffffffffff80841115611b0c57611b0c611adb565b604051601f8501601f19908116603f01168101908282118183101715611b3457611b34611adb565b81604052809350858152868686011115611b4d57600080fd5b858560208301376000602087830101525050509392505050565b600060208284031215611b7957600080fd5b813567ffffffffffffffff811115611b9057600080fd5b8201601f81018413611ba157600080fd5b610dfa84823560208401611af1565b60008060408385031215611bc357600080fd5b611bcc836119ff565b9150611bda6020840161194b565b90509250929050565b60008060008060808587031215611bf957600080fd5b611c02856119ff565b9350611c10602086016119ff565b925060408501359150606085013567ffffffffffffffff811115611c3357600080fd5b8501601f81018713611c4457600080fd5b611c5387823560208401611af1565b91505092959194509250565b60008060408385031215611c7257600080fd5b611c7b836119ff565b9150611bda602084016119ff565b600181811c90821680611c9d57607f821691505b602082108103611cbd57634e487b7160e01b600052602260045260246000fd5b50919050565b6020808252602d908201527f4552433732313a2063616c6c6572206973206e6f7420746f6b656e206f776e6560408201526c1c881bdc88185c1c1c9bdd9959609a1b606082015260800190565b634e487b7160e01b600052603260045260246000fd5b634e487b7160e01b600052601160045260246000fd5b600060018201611d4e57611d4e611d26565b5060010190565b60008219821115611d6857611d68611d26565b500190565b600084516020611d808285838a0161197b565b855191840191611d938184848a0161197b565b8554920191600090600181811c9080831680611db057607f831692505b8583108103611dcd57634e487b7160e01b85526022600452602485fd5b808015611de15760018114611df257611e1f565b60ff19851688528388019550611e1f565b60008b81526020902060005b85811015611e175781548a820152908401908801611dfe565b505083880195505b50939b9a5050505050505050505050565b60208082526025908201527f4552433732313a207472616e736665722066726f6d20696e636f72726563742060408201526437bbb732b960d91b606082015260800190565b60208082526032908201527f4552433732313a207472616e7366657220746f206e6f6e20455243373231526560408201527131b2b4bb32b91034b6b83632b6b2b73a32b960711b606082015260800190565b6001600160a01b0385811682528416602082015260408101839052608060608201819052600090611efa908301846119a7565b9695505050505050565b600060208284031215611f1657600080fd5b8151610b7181611918565b600082821015611f3357611f33611d26565b500390565b634e487b7160e01b600052603160045260246000fdfea264697066735822122050f7b22de595e76d88b1bf102ca71320f0fd98408b6db1a9201d8812189c56dd64736f6c634300080d0033a2646970667358221220a1366c2df0b0d4f9ed97fa6b70c3a666a46fa9da5e9213cfacaec33d0ca770d864736f6c634300080d0033",
  "devdoc": {
    "kind": "dev",
    "methods": {},
    "version": 1
  },
  "userdoc": {
    "kind": "user",
    "methods": {},
    "version": 1
  },
  "storageLayout": {
    "storage": [],
    "types": null
  }
}