{
  "address": "0xa9A605405144619e8229645FF4Ce1F53A74A69Bb",
  "abi": [
    {
      "anonymous": false,
      "inputs": [
        {
          "indexed": false,
          "internalType": "uint256",
          "name": "id",
          "type": "uint256"
        },
        {
          "indexed": false,
          "internalType": "address",
          "name": "creator",
          "type": "address"
        }
      ],
      "name": "GroupCreated",
      "type": "event"
    },
    {
      "anonymous": false,
      "inputs": [
        {
          "components": [
            {
              "internalType": "bytes32",
              "name": "name",
              "type": "bytes32"
            },
            {
              "internalType": "uint256",
              "name": "groupId",
              "type": "uint256"
            },
            {
              "internalType": "uint256",
              "name": "engagePoints",
              "type": "uint256"
            }
          ],
          "indexed": false,
          "internalType": "struct LibCoreFacet.QuestData",
          "name": "questData",
          "type": "tuple"
        },
        {
          "indexed": false,
          "internalType": "uint256",
          "name": "id",
          "type": "uint256"
        }
      ],
      "name": "QuestCreated",
      "type": "event"
    },
    {
      "inputs": [
        {
          "components": [
            {
              "internalType": "bytes32",
              "name": "name",
              "type": "bytes32"
            },
            {
              "internalType": "uint256",
              "name": "groupId",
              "type": "uint256"
            },
            {
              "internalType": "uint256",
              "name": "engagePoints",
              "type": "uint256"
            }
          ],
          "internalType": "struct LibCoreFacet.QuestData",
          "name": "_questData",
          "type": "tuple"
        }
      ],
      "name": "addQuest",
      "outputs": [],
      "stateMutability": "nonpayable",
      "type": "function"
    },
    {
      "inputs": [
        {
          "internalType": "uint256",
          "name": "_questId",
          "type": "uint256"
        }
      ],
      "name": "completeQuest",
      "outputs": [],
      "stateMutability": "nonpayable",
      "type": "function"
    },
    {
      "inputs": [
        {
          "internalType": "bytes32",
          "name": "name",
          "type": "bytes32"
        }
      ],
      "name": "createGroup",
      "outputs": [],
      "stateMutability": "nonpayable",
      "type": "function"
    },
    {
      "inputs": [
        {
          "internalType": "uint256",
          "name": "_groupId",
          "type": "uint256"
        }
      ],
      "name": "getGroup",
      "outputs": [
        {
          "components": [
            {
              "internalType": "bytes32",
              "name": "name",
              "type": "bytes32"
            },
            {
              "internalType": "address",
              "name": "owner",
              "type": "address"
            }
          ],
          "internalType": "struct LibCoreFacet.GroupData",
          "name": "",
          "type": "tuple"
        }
      ],
      "stateMutability": "view",
      "type": "function"
    },
    {
      "inputs": [
        {
          "internalType": "uint256",
          "name": "_questId",
          "type": "uint256"
        }
      ],
      "name": "getQuest",
      "outputs": [
        {
          "components": [
            {
              "internalType": "bytes32",
              "name": "name",
              "type": "bytes32"
            },
            {
              "internalType": "uint256",
              "name": "groupId",
              "type": "uint256"
            },
            {
              "internalType": "uint256",
              "name": "engagePoints",
              "type": "uint256"
            }
          ],
          "internalType": "struct LibCoreFacet.QuestData",
          "name": "",
          "type": "tuple"
        }
      ],
      "stateMutability": "view",
      "type": "function"
    },
    {
      "inputs": [
        {
          "internalType": "uint256",
          "name": "_groupId",
          "type": "uint256"
        }
      ],
      "name": "getUserEngagePoint",
      "outputs": [
        {
          "internalType": "uint256",
          "name": "",
          "type": "uint256"
        }
      ],
      "stateMutability": "view",
      "type": "function"
    },
    {
      "inputs": [
        {
          "internalType": "uint256",
          "name": "_groupId",
          "type": "uint256"
        },
        {
          "internalType": "bytes32",
          "name": "_newName",
          "type": "bytes32"
        },
        {
          "internalType": "address",
          "name": "_newOwner",
          "type": "address"
        }
      ],
      "name": "modifyGroup",
      "outputs": [],
      "stateMutability": "nonpayable",
      "type": "function"
    }
  ],
  "transactionHash": "0xad3986014946a4ce1c4eb828e1cd67a3bffa6c5fcfdb3f1cfe98449de4742880",
  "args": [],
  "numDeployments": 1,
  "solcInputHash": "d0daf16529b6daa7e9ce8abeaf098b45",
  "bytecode": "0x608060405234801561001057600080fd5b50610803806100206000396000f3fe608060405234801561001057600080fd5b506004361061007d5760003560e01c806379c4d03c1161005b57806379c4d03c1461018e5780637b4eaf6f146101a15780638f12c196146101b4578063ceb60654146101c757600080fd5b806306a414071461008257806349f86f34146100df578063528be0a914610179575b600080fd5b6100cc6100903660046106bf565b60009081527f7c7557f95a2f97ba23b20056e448af54f71e639e66ae0b4d106fd6235e42a90e6020908152604080832033845290915290205490565b6040519081526020015b60405180910390f35b6101576100ed3660046106bf565b6040805160608082018352600080835260208084018290529284018190529384527f7c7557f95a2f97ba23b20056e448af54f71e639e66ae0b4d106fd6235e42a90c8252928290208251938401835280548452600181015491840191909152600201549082015290565b60408051825181526020808401519082015291810151908201526060016100d6565b61018c6101873660046106bf565b61025c565b005b61018c61019c3660046106d8565b610373565b61018c6101af36600461071d565b6103c1565b61018c6101c23660046106bf565b6104ea565b6102386101d53660046106bf565b604080518082018252600080825260209182018190529283527f7c7557f95a2f97ba23b20056e448af54f71e639e66ae0b4d106fd6235e42a90b815291819020815180830190925280548252600101546001600160a01b03169181019190915290565b60408051825181526020928301516001600160a01b031692810192909252016100d6565b60008181527f7c7557f95a2f97ba23b20056e448af54f71e639e66ae0b4d106fd6235e42a90d602090815260408083203384529091529020546000805160206107ae8339815191529060ff16156103085760405162461bcd60e51b815260206004820152602560248201527f757365722068617320616c726561647920636f6d706c657465642074686973206044820152641c5d595cdd60da1b60648201526084015b60405180910390fd5b6000828152600482016020908152604080832033808552908352818420805460ff19166001908117909155868552600386018452828520600281015491015485526005860184528285209185529252822080549192909161036a908490610787565b90915550505050565b6000805160206107ae83398151915261038c8433610587565b6000938452600201602052604090922090815560010180546001600160a01b0319166001600160a01b03909216919091179055565b60208101516000805160206107ae833981519152906103e09033610587565b6103f08160010180546001019055565b8151600382016000610403600185015490565b815260200190815260200160002060000181905550816020015181600301600061042e846001015490565b8152602001908152602001600020600101819055508160400151816003016000610459846001015490565b8152602001908152602001600020600201819055507fd8e19b4f7b6c9d58a4c817a52690f5d13ec63b7a15c533e3a00f31a4bdb222478160030160006104a0846001015490565b81526020019081526020016000206104b9836001015490565b6040805183548152600184015460208201526002909301549083015260608201526080015b60405180910390a15050565b6000805160206107ae8339815191528054600190810180835560009081527f7c7557f95a2f97ba23b20056e448af54f71e639e66ae0b4d106fd6235e42a90b60209081526040808320869055845483529182902090920180546001600160a01b0319163390811790915583548251908152928301527f6958b51b54d963fa8eeeea5b61b83a9ad28f9ee9d5a2f1b8495e6866cb534bb191016104de565b816000036105ce5760405162461bcd60e51b8152602060048201526014602482015273067726f75702069642063616e6e6f7420626520360641b60448201526064016102ff565b6001600160a01b0381166106245760405162461bcd60e51b815260206004820152601960248201527f6f776e657220616464726573732063616e6e6f7420626520300000000000000060448201526064016102ff565b60008281527f7c7557f95a2f97ba23b20056e448af54f71e639e66ae0b4d106fd6235e42a90b60205260409020600101546001600160a01b038281169116146106bb5760405162461bcd60e51b8152602060048201526024808201527f63616c6c6572206973206e6f7420746865206f776e6572206f662074686520676044820152630726f75760e41b60648201526084016102ff565b5050565b6000602082840312156106d157600080fd5b5035919050565b6000806000606084860312156106ed57600080fd5b833592506020840135915060408401356001600160a01b038116811461071257600080fd5b809150509250925092565b60006060828403121561072f57600080fd5b6040516060810181811067ffffffffffffffff8211171561076057634e487b7160e01b600052604160045260246000fd5b80604052508235815260208301356020820152604083013560408201528091505092915050565b600082198211156107a857634e487b7160e01b600052601160045260246000fd5b50019056fe7c7557f95a2f97ba23b20056e448af54f71e639e66ae0b4d106fd6235e42a909a2646970667358221220932d5aabdc2329ecdd914e3af93ab4226462a3064bb30c39e5eaba42b1c01dbc64736f6c634300080d0033",
  "devdoc": {
    "kind": "dev",
    "methods": {},
    "version": 1
  },
  "userdoc": {
    "kind": "user",
    "methods": {},
    "version": 1
  },
  "storageLayout": {
    "storage": [],
    "types": null
  }
}