{
  "address": "0x2279B7A0a67DB372996a5FaB50D91eAA73d2eBe6",
  "abi": [
    {
      "anonymous": false,
      "inputs": [
        {
          "indexed": false,
          "internalType": "uint256",
          "name": "id",
          "type": "uint256"
        },
        {
          "indexed": false,
          "internalType": "address",
          "name": "creator",
          "type": "address"
        }
      ],
      "name": "GroupCreated",
      "type": "event"
    },
    {
      "anonymous": false,
      "inputs": [
        {
          "indexed": false,
          "internalType": "uint256",
          "name": "id",
          "type": "uint256"
        },
        {
          "indexed": false,
          "internalType": "address",
          "name": "newOwner",
          "type": "address"
        }
      ],
      "name": "GroupModified",
      "type": "event"
    },
    {
      "anonymous": false,
      "inputs": [
        {
          "indexed": false,
          "internalType": "uint256",
          "name": "groupId",
          "type": "uint256"
        },
        {
          "indexed": false,
          "internalType": "address",
          "name": "userAddr",
          "type": "address"
        },
        {
          "indexed": false,
          "internalType": "uint256",
          "name": "engageScore",
          "type": "uint256"
        }
      ],
      "name": "QuestComplete",
      "type": "event"
    },
    {
      "anonymous": false,
      "inputs": [
        {
          "components": [
            {
              "internalType": "bytes32",
              "name": "name",
              "type": "bytes32"
            },
            {
              "internalType": "uint256",
              "name": "groupId",
              "type": "uint256"
            },
            {
              "internalType": "uint256",
              "name": "engagePoints",
              "type": "uint256"
            }
          ],
          "indexed": false,
          "internalType": "struct LibCoreFacet.QuestData",
          "name": "questData",
          "type": "tuple"
        },
        {
          "indexed": false,
          "internalType": "uint256",
          "name": "id",
          "type": "uint256"
        }
      ],
      "name": "QuestCreated",
      "type": "event"
    },
    {
      "inputs": [
        {
          "components": [
            {
              "internalType": "bytes32",
              "name": "name",
              "type": "bytes32"
            },
            {
              "internalType": "uint256",
              "name": "groupId",
              "type": "uint256"
            },
            {
              "internalType": "uint256",
              "name": "engagePoints",
              "type": "uint256"
            }
          ],
          "internalType": "struct LibCoreFacet.QuestData",
          "name": "_questData",
          "type": "tuple"
        }
      ],
      "name": "addQuest",
      "outputs": [],
      "stateMutability": "nonpayable",
      "type": "function"
    },
    {
      "inputs": [
        {
          "internalType": "uint256",
          "name": "_questId",
          "type": "uint256"
        },
        {
          "internalType": "address",
          "name": "userAddr",
          "type": "address"
        }
      ],
      "name": "completeQuest",
      "outputs": [],
      "stateMutability": "nonpayable",
      "type": "function"
    },
    {
      "inputs": [
        {
          "internalType": "bytes32",
          "name": "name",
          "type": "bytes32"
        }
      ],
      "name": "createGroup",
      "outputs": [],
      "stateMutability": "nonpayable",
      "type": "function"
    },
    {
      "inputs": [
        {
          "internalType": "uint256",
          "name": "_groupId",
          "type": "uint256"
        }
      ],
      "name": "getGroup",
      "outputs": [
        {
          "components": [
            {
              "internalType": "bytes32",
              "name": "name",
              "type": "bytes32"
            },
            {
              "internalType": "address",
              "name": "owner",
              "type": "address"
            }
          ],
          "internalType": "struct LibCoreFacet.GroupData",
          "name": "",
          "type": "tuple"
        }
      ],
      "stateMutability": "view",
      "type": "function"
    },
    {
      "inputs": [
        {
          "internalType": "uint256",
          "name": "_questId",
          "type": "uint256"
        }
      ],
      "name": "getQuest",
      "outputs": [
        {
          "components": [
            {
              "internalType": "bytes32",
              "name": "name",
              "type": "bytes32"
            },
            {
              "internalType": "uint256",
              "name": "groupId",
              "type": "uint256"
            },
            {
              "internalType": "uint256",
              "name": "engagePoints",
              "type": "uint256"
            }
          ],
          "internalType": "struct LibCoreFacet.QuestData",
          "name": "",
          "type": "tuple"
        }
      ],
      "stateMutability": "view",
      "type": "function"
    },
    {
      "inputs": [
        {
          "internalType": "uint256",
          "name": "_groupId",
          "type": "uint256"
        }
      ],
      "name": "getUserEngagePoint",
      "outputs": [
        {
          "internalType": "uint256",
          "name": "",
          "type": "uint256"
        }
      ],
      "stateMutability": "view",
      "type": "function"
    },
    {
      "inputs": [
        {
          "internalType": "uint256",
          "name": "_groupId",
          "type": "uint256"
        },
        {
          "internalType": "bytes32",
          "name": "_newName",
          "type": "bytes32"
        },
        {
          "internalType": "address",
          "name": "_newOwner",
          "type": "address"
        }
      ],
      "name": "modifyGroup",
      "outputs": [],
      "stateMutability": "nonpayable",
      "type": "function"
    }
  ],
  "transactionHash": "0x8b15327d7caf34f962053e12fc00a8a755a9a9fede7efec4ab86328742db8216",
  "args": [],
  "numDeployments": 1,
  "solcInputHash": "a96ccf791f4e5f3e8ed1707e3b9c73c0",
  "bytecode": "0x608060405234801561001057600080fd5b506108b2806100206000396000f3fe608060405234801561001057600080fd5b506004361061007d5760003560e01c80637b4eaf6f1161005b5780637b4eaf6f1461018e5780638f12c196146101a1578063ceb60654146101b4578063d014ba381461024957600080fd5b806306a414071461008257806349f86f34146100df57806379c4d03c14610179575b600080fd5b6100cc610090366004610736565b60009081527f7c7557f95a2f97ba23b20056e448af54f71e639e66ae0b4d106fd6235e42a90e6020908152604080832033845290915290205490565b6040519081526020015b60405180910390f35b6101576100ed366004610736565b6040805160608082018352600080835260208084018290529284018190529384527f7c7557f95a2f97ba23b20056e448af54f71e639e66ae0b4d106fd6235e42a90c8252928290208251938401835280548452600181015491840191909152600201549082015290565b60408051825181526020808401519082015291810151908201526060016100d6565b61018c61018736600461076b565b61025c565b005b61018c61019c3660046107a0565b6102e5565b61018c6101af366004610736565b6103d1565b6102256101c2366004610736565b604080518082018252600080825260209182018190529283527f7c7557f95a2f97ba23b20056e448af54f71e639e66ae0b4d106fd6235e42a90b815291819020815180830190925280548252600101546001600160a01b03169181019190915290565b60408051825181526020928301516001600160a01b031692810192909252016100d6565b61018c61025736600461080a565b61046e565b60008051602061085d83398151915261027584336105fe565b600084815260028201602090815260409182902085815560010180546001600160a01b0319166001600160a01b0386169081179091558251878152918201527f9775045727e62a6e3171918579e5f471dd98b8553ec37374892e94e34b21cc60910160405180910390a150505050565b7f7c7557f95a2f97ba23b20056e448af54f71e639e66ae0b4d106fd6235e42a90a80546001908101808355835160009182527f7c7557f95a2f97ba23b20056e448af54f71e639e66ae0b4d106fd6235e42a90c602090815260408084209290925585015184548352818320909301929092558184015183548252828220600201559154808352912060008051602061085d833981519152917fd8e19b4f7b6c9d58a4c817a52690f5d13ec63b7a15c533e3a00f31a4bdb2224791906040805183548152600184015460208201526002909301549083015260608201526080015b60405180910390a15050565b60008051602061085d8339815191528054600190810180835560009081527f7c7557f95a2f97ba23b20056e448af54f71e639e66ae0b4d106fd6235e42a90b60209081526040808320869055845483529182902090920180546001600160a01b0319163390811790915583548251908152928301527f6958b51b54d963fa8eeeea5b61b83a9ad28f9ee9d5a2f1b8495e6866cb534bb191016103c5565b60008281527f7c7557f95a2f97ba23b20056e448af54f71e639e66ae0b4d106fd6235e42a90d602090815260408083206001600160a01b038516845290915290205460008051602061085d8339815191529060ff16156105235760405162461bcd60e51b815260206004820152602560248201527f757365722068617320616c726561647920636f6d706c657465642074686973206044820152641c5d595cdd60da1b60648201526084015b60405180910390fd5b600083815260048201602090815260408083206001600160a01b038616808552908352818420805460ff19166001908117909155878552600386018452828520600281015491015485526005860184528285209185529252822080549192909161058e908490610836565b90915550506000838152600382016020908152604091829020600181015460029091015483519182526001600160a01b03861692820192909252918201527f6fd9e03ade34e8dfe61fa8769d76050a1ac428bcc56ea79cbb177acaba7d77ad9060600160405180910390a1505050565b816000036106455760405162461bcd60e51b8152602060048201526014602482015273067726f75702069642063616e6e6f7420626520360641b604482015260640161051a565b6001600160a01b03811661069b5760405162461bcd60e51b815260206004820152601960248201527f6f776e657220616464726573732063616e6e6f74206265203000000000000000604482015260640161051a565b60008281527f7c7557f95a2f97ba23b20056e448af54f71e639e66ae0b4d106fd6235e42a90b60205260409020600101546001600160a01b038281169116146107325760405162461bcd60e51b8152602060048201526024808201527f63616c6c6572206973206e6f7420746865206f776e6572206f662074686520676044820152630726f75760e41b606482015260840161051a565b5050565b60006020828403121561074857600080fd5b5035919050565b80356001600160a01b038116811461076657600080fd5b919050565b60008060006060848603121561078057600080fd5b83359250602084013591506107976040850161074f565b90509250925092565b6000606082840312156107b257600080fd5b6040516060810181811067ffffffffffffffff821117156107e357634e487b7160e01b600052604160045260246000fd5b80604052508235815260208301356020820152604083013560408201528091505092915050565b6000806040838503121561081d57600080fd5b8235915061082d6020840161074f565b90509250929050565b6000821982111561085757634e487b7160e01b600052601160045260246000fd5b50019056fe7c7557f95a2f97ba23b20056e448af54f71e639e66ae0b4d106fd6235e42a909a2646970667358221220a536195377e98b4eae4be24f0aa4d58825023f7fe81af80f3c87b3edb8b5d7d164736f6c634300080d0033",
  "devdoc": {
    "kind": "dev",
    "methods": {},
    "version": 1
  },
  "userdoc": {
    "kind": "user",
    "methods": {},
    "version": 1
  },
  "storageLayout": {
    "storage": [],
    "types": null
  }
}