{
  "address": "0x2279B7A0a67DB372996a5FaB50D91eAA73d2eBe6",
  "abi": [
    {
      "inputs": [
        {
          "internalType": "address",
          "name": "_user",
          "type": "address"
        },
        {
          "internalType": "address",
          "name": "_contractOwner",
          "type": "address"
        }
      ],
      "name": "NotContractOwner",
      "type": "error"
    },
    {
      "anonymous": false,
      "inputs": [
        {
          "indexed": false,
          "internalType": "uint256",
          "name": "id",
          "type": "uint256"
        },
        {
          "indexed": false,
          "internalType": "address",
          "name": "creator",
          "type": "address"
        }
      ],
      "name": "GroupCreated",
      "type": "event"
    },
    {
      "anonymous": false,
      "inputs": [
        {
          "indexed": false,
          "internalType": "uint256",
          "name": "id",
          "type": "uint256"
        },
        {
          "indexed": false,
          "internalType": "address",
          "name": "newOwner",
          "type": "address"
        }
      ],
      "name": "GroupModified",
      "type": "event"
    },
    {
      "anonymous": false,
      "inputs": [
        {
          "indexed": false,
          "internalType": "uint256",
          "name": "groupId",
          "type": "uint256"
        },
        {
          "indexed": false,
          "internalType": "address",
          "name": "userAddr",
          "type": "address"
        },
        {
          "indexed": false,
          "internalType": "uint256",
          "name": "engageScore",
          "type": "uint256"
        }
      ],
      "name": "QuestComplete",
      "type": "event"
    },
    {
      "anonymous": false,
      "inputs": [
        {
          "components": [
            {
              "internalType": "bytes32",
              "name": "name",
              "type": "bytes32"
            },
            {
              "internalType": "uint256",
              "name": "groupId",
              "type": "uint256"
            },
            {
              "internalType": "uint256",
              "name": "engagePoints",
              "type": "uint256"
            }
          ],
          "indexed": false,
          "internalType": "struct LibCoreFacet.QuestData",
          "name": "questData",
          "type": "tuple"
        },
        {
          "indexed": false,
          "internalType": "uint256",
          "name": "id",
          "type": "uint256"
        }
      ],
      "name": "QuestCreated",
      "type": "event"
    },
    {
      "inputs": [
        {
          "components": [
            {
              "internalType": "bytes32",
              "name": "name",
              "type": "bytes32"
            },
            {
              "internalType": "uint256",
              "name": "groupId",
              "type": "uint256"
            },
            {
              "internalType": "uint256",
              "name": "engagePoints",
              "type": "uint256"
            }
          ],
          "internalType": "struct LibCoreFacet.QuestData",
          "name": "_questData",
          "type": "tuple"
        }
      ],
      "name": "addQuest",
      "outputs": [],
      "stateMutability": "nonpayable",
      "type": "function"
    },
    {
      "inputs": [
        {
          "internalType": "uint256",
          "name": "_questId",
          "type": "uint256"
        },
        {
          "internalType": "address",
          "name": "userAddr",
          "type": "address"
        }
      ],
      "name": "completeQuest",
      "outputs": [],
      "stateMutability": "nonpayable",
      "type": "function"
    },
    {
      "inputs": [
        {
          "internalType": "bytes32",
          "name": "name",
          "type": "bytes32"
        }
      ],
      "name": "createGroup",
      "outputs": [],
      "stateMutability": "nonpayable",
      "type": "function"
    },
    {
      "inputs": [
        {
          "internalType": "uint256",
          "name": "_groupId",
          "type": "uint256"
        }
      ],
      "name": "getGroup",
      "outputs": [
        {
          "components": [
            {
              "internalType": "bytes32",
              "name": "name",
              "type": "bytes32"
            },
            {
              "internalType": "address",
              "name": "owner",
              "type": "address"
            }
          ],
          "internalType": "struct LibCoreFacet.GroupData",
          "name": "",
          "type": "tuple"
        }
      ],
      "stateMutability": "view",
      "type": "function"
    },
    {
      "inputs": [
        {
          "internalType": "uint256",
          "name": "_questId",
          "type": "uint256"
        }
      ],
      "name": "getQuest",
      "outputs": [
        {
          "components": [
            {
              "internalType": "bytes32",
              "name": "name",
              "type": "bytes32"
            },
            {
              "internalType": "uint256",
              "name": "groupId",
              "type": "uint256"
            },
            {
              "internalType": "uint256",
              "name": "engagePoints",
              "type": "uint256"
            }
          ],
          "internalType": "struct LibCoreFacet.QuestData",
          "name": "",
          "type": "tuple"
        }
      ],
      "stateMutability": "view",
      "type": "function"
    },
    {
      "inputs": [
        {
          "internalType": "uint256",
          "name": "_groupId",
          "type": "uint256"
        }
      ],
      "name": "getUserEngagePoint",
      "outputs": [
        {
          "internalType": "uint256",
          "name": "",
          "type": "uint256"
        }
      ],
      "stateMutability": "view",
      "type": "function"
    },
    {
      "inputs": [
        {
          "internalType": "uint256",
          "name": "_groupId",
          "type": "uint256"
        },
        {
          "internalType": "bytes32",
          "name": "_newName",
          "type": "bytes32"
        },
        {
          "internalType": "address",
          "name": "_newOwner",
          "type": "address"
        }
      ],
      "name": "modifyGroup",
      "outputs": [],
      "stateMutability": "nonpayable",
      "type": "function"
    }
  ],
  "transactionHash": "0x2ecad0d2d23972bdf26ecd31936bd32cc42d16fbd53a76f87dbbb60a8fc2fd3d",
  "args": [],
  "numDeployments": 1,
  "solcInputHash": "731156154fe4c3f6a2ace5060ff175fd",
  "bytecode": "0x608060405234801561001057600080fd5b50610940806100206000396000f3fe608060405234801561001057600080fd5b506004361061007d5760003560e01c80637b4eaf6f1161005b5780637b4eaf6f1461018e5780638f12c196146101a1578063ceb60654146101b4578063d014ba381461024957600080fd5b806306a414071461008257806349f86f34146100df57806379c4d03c14610179575b600080fd5b6100cc6100903660046107c4565b60009081527f7c7557f95a2f97ba23b20056e448af54f71e639e66ae0b4d106fd6235e42a90e6020908152604080832033845290915290205490565b6040519081526020015b60405180910390f35b6101576100ed3660046107c4565b6040805160608082018352600080835260208084018290529284018190529384527f7c7557f95a2f97ba23b20056e448af54f71e639e66ae0b4d106fd6235e42a90c8252928290208251938401835280548452600181015491840191909152600201549082015290565b60408051825181526020808401519082015291810151908201526060016100d6565b61018c6101873660046107f9565b61025c565b005b61018c61019c36600461082e565b6102e5565b61018c6101af3660046107c4565b6103d1565b6102256101c23660046107c4565b604080518082018252600080825260209182018190529283527f7c7557f95a2f97ba23b20056e448af54f71e639e66ae0b4d106fd6235e42a90b815291819020815180830190925280548252600101546001600160a01b03169181019190915290565b60408051825181526020928301516001600160a01b031692810192909252016100d6565b61018c610257366004610898565b61046e565b6000805160206108eb8339815191526102758433610606565b600084815260028201602090815260409182902085815560010180546001600160a01b0319166001600160a01b0386169081179091558251878152918201527f9775045727e62a6e3171918579e5f471dd98b8553ec37374892e94e34b21cc60910160405180910390a150505050565b7f7c7557f95a2f97ba23b20056e448af54f71e639e66ae0b4d106fd6235e42a90a80546001908101808355835160009182527f7c7557f95a2f97ba23b20056e448af54f71e639e66ae0b4d106fd6235e42a90c60209081526040808420929092558501518454835281832090930192909255818401518354825282822060020155915480835291206000805160206108eb833981519152917fd8e19b4f7b6c9d58a4c817a52690f5d13ec63b7a15c533e3a00f31a4bdb2224791906040805183548152600184015460208201526002909301549083015260608201526080015b60405180910390a15050565b6000805160206108eb8339815191528054600190810180835560009081527f7c7557f95a2f97ba23b20056e448af54f71e639e66ae0b4d106fd6235e42a90b60209081526040808320869055845483529182902090920180546001600160a01b0319163390811790915583548251908152928301527f6958b51b54d963fa8eeeea5b61b83a9ad28f9ee9d5a2f1b8495e6866cb534bb191016103c5565b61047661073e565b60008281527f7c7557f95a2f97ba23b20056e448af54f71e639e66ae0b4d106fd6235e42a90d602090815260408083206001600160a01b03851684529091529020546000805160206108eb8339815191529060ff161561052b5760405162461bcd60e51b815260206004820152602560248201527f757365722068617320616c726561647920636f6d706c657465642074686973206044820152641c5d595cdd60da1b60648201526084015b60405180910390fd5b600083815260048201602090815260408083206001600160a01b038616808552908352818420805460ff1916600190811790915587855260038601845282852060028101549101548552600586018452828520918552925282208054919290916105969084906108c4565b90915550506000838152600382016020908152604091829020600181015460029091015483519182526001600160a01b03861692820192909252918201527f6fd9e03ade34e8dfe61fa8769d76050a1ac428bcc56ea79cbb177acaba7d77ad9060600160405180910390a1505050565b8160000361064d5760405162461bcd60e51b8152602060048201526014602482015273067726f75702069642063616e6e6f7420626520360641b6044820152606401610522565b6001600160a01b0381166106a35760405162461bcd60e51b815260206004820152601960248201527f6f776e657220616464726573732063616e6e6f742062652030000000000000006044820152606401610522565b60008281527f7c7557f95a2f97ba23b20056e448af54f71e639e66ae0b4d106fd6235e42a90b60205260409020600101546001600160a01b0382811691161461073a5760405162461bcd60e51b8152602060048201526024808201527f63616c6c6572206973206e6f7420746865206f776e6572206f662074686520676044820152630726f75760e41b6064820152608401610522565b5050565b7f79b11f6625ffd9710b4a6c082cb9614eeb753fd2a4e5ead8e7e5c9b08bbd5bb3600301546001600160a01b031633146107c2577f79b11f6625ffd9710b4a6c082cb9614eeb753fd2a4e5ead8e7e5c9b08bbd5bb654604051600162bed83560e01b031981523360048201526001600160a01b039091166024820152604401610522565b565b6000602082840312156107d657600080fd5b5035919050565b80356001600160a01b03811681146107f457600080fd5b919050565b60008060006060848603121561080e57600080fd5b8335925060208401359150610825604085016107dd565b90509250925092565b60006060828403121561084057600080fd5b6040516060810181811067ffffffffffffffff8211171561087157634e487b7160e01b600052604160045260246000fd5b80604052508235815260208301356020820152604083013560408201528091505092915050565b600080604083850312156108ab57600080fd5b823591506108bb602084016107dd565b90509250929050565b600082198211156108e557634e487b7160e01b600052601160045260246000fd5b50019056fe7c7557f95a2f97ba23b20056e448af54f71e639e66ae0b4d106fd6235e42a909a2646970667358221220b56de12f6d4381eede90c94a5be8d8be96e123dc7bb8e18d15617d6e5b58133464736f6c634300080d0033",
  "devdoc": {
    "kind": "dev",
    "methods": {},
    "version": 1
  },
  "userdoc": {
    "kind": "user",
    "methods": {},
    "version": 1
  },
  "storageLayout": {
    "storage": [],
    "types": null
  }
}