{
  "address": "0xa9A605405144619e8229645FF4Ce1F53A74A69Bb",
  "abi": [
    {
      "anonymous": false,
      "inputs": [
        {
          "indexed": false,
          "internalType": "uint256",
          "name": "_id",
          "type": "uint256"
        },
        {
          "indexed": false,
          "internalType": "address",
          "name": "_creator",
          "type": "address"
        }
      ],
      "name": "groupCreated",
      "type": "event"
    },
    {
      "inputs": [
        {
          "internalType": "uint256",
          "name": "_groupId",
          "type": "uint256"
        },
        {
          "internalType": "bytes32",
          "name": "name",
          "type": "bytes32"
        }
      ],
      "name": "addQuest",
      "outputs": [],
      "stateMutability": "nonpayable",
      "type": "function"
    },
    {
      "inputs": [
        {
          "internalType": "bytes32",
          "name": "name",
          "type": "bytes32"
        }
      ],
      "name": "createGroup",
      "outputs": [],
      "stateMutability": "nonpayable",
      "type": "function"
    },
    {
      "inputs": [
        {
          "internalType": "uint256",
          "name": "_groupId",
          "type": "uint256"
        }
      ],
      "name": "getGroup",
      "outputs": [
        {
          "components": [
            {
              "internalType": "bytes32",
              "name": "name",
              "type": "bytes32"
            },
            {
              "internalType": "address",
              "name": "owner",
              "type": "address"
            }
          ],
          "internalType": "struct GroupData",
          "name": "",
          "type": "tuple"
        }
      ],
      "stateMutability": "view",
      "type": "function"
    },
    {
      "inputs": [
        {
          "internalType": "uint256",
          "name": "_questId",
          "type": "uint256"
        }
      ],
      "name": "getQuest",
      "outputs": [
        {
          "components": [
            {
              "internalType": "bytes32",
              "name": "name",
              "type": "bytes32"
            },
            {
              "internalType": "uint256",
              "name": "groupId",
              "type": "uint256"
            }
          ],
          "internalType": "struct QuestData",
          "name": "",
          "type": "tuple"
        }
      ],
      "stateMutability": "view",
      "type": "function"
    },
    {
      "inputs": [
        {
          "internalType": "uint256",
          "name": "_groupId",
          "type": "uint256"
        },
        {
          "internalType": "bytes32",
          "name": "_newName",
          "type": "bytes32"
        },
        {
          "internalType": "address",
          "name": "_newOwner",
          "type": "address"
        }
      ],
      "name": "modifyGroup",
      "outputs": [],
      "stateMutability": "nonpayable",
      "type": "function"
    }
  ],
  "transactionHash": "0x65b9d7ff07f51eabf6f2bef97e591552b74cc9588f590ebe5109502936b69a77",
  "args": [],
  "numDeployments": 1,
  "solcInputHash": "0b40c6a1768bc062321c5fbd53f899ac",
  "bytecode": "0x608060405234801561001057600080fd5b50610516806100206000396000f3fe608060405234801561001057600080fd5b50600436106100575760003560e01c806349f86f341461005c5780635f249856146100ec57806379c4d03c146101015780638f12c19614610114578063ceb6065414610199575b600080fd5b6100cc61006a366004610460565b60408051808201825260008082526020918201819052825180840184528482527f7c7557f95a2f97ba23b20056e448af54f71e639e66ae0b4d106fd6235e42a90c80845293822080548252949091529181526001909201549181019190915290565b604080518251815260209283015192810192909252015b60405180910390f35b6100ff6100fa366004610479565b610236565b005b6100ff61010f36600461049b565b6102c3565b6100ff610122366004610460565b7f7c7557f95a2f97ba23b20056e448af54f71e639e66ae0b4d106fd6235e42a9098054600190810180835560009081527f7c7557f95a2f97ba23b20056e448af54f71e639e66ae0b4d106fd6235e42a90b602052604080822094909455915482529190200180546001600160a01b03191633179055565b6102126101a7366004610460565b60408051808201825260008082526020918201819052825180840184528482527f7c7557f95a2f97ba23b20056e448af54f71e639e66ae0b4d106fd6235e42a90b80845293822080548252949091529181526001909201546001600160a01b03169181019190915290565b60408051825181526020928301516001600160a01b031692810192909252016100e3565b7f7c7557f95a2f97ba23b20056e448af54f71e639e66ae0b4d106fd6235e42a9096102618333610323565b6102718160010180546001019055565b81816003016000610283846001015490565b815260200190815260200160002060000181905550828160030160006102aa846001015490565b8152602081019190915260400160002060010155505050565b7f7c7557f95a2f97ba23b20056e448af54f71e639e66ae0b4d106fd6235e42a9096102ee8433610323565b6000938452600201602052604090922090815560010180546001600160a01b0319166001600160a01b03909216919091179055565b8160000361036f5760405162461bcd60e51b8152602060048201526014602482015273067726f75702069642063616e6e6f7420626520360641b60448201526064015b60405180910390fd5b6001600160a01b0381166103c55760405162461bcd60e51b815260206004820152601960248201527f6f776e657220616464726573732063616e6e6f742062652030000000000000006044820152606401610366565b60008281527f7c7557f95a2f97ba23b20056e448af54f71e639e66ae0b4d106fd6235e42a90b60205260409020600101546001600160a01b0382811691161461045c5760405162461bcd60e51b8152602060048201526024808201527f63616c6c6572206973206e6f7420746865206f776e6572206f662074686520676044820152630726f75760e41b6064820152608401610366565b5050565b60006020828403121561047257600080fd5b5035919050565b6000806040838503121561048c57600080fd5b50508035926020909101359150565b6000806000606084860312156104b057600080fd5b833592506020840135915060408401356001600160a01b03811681146104d557600080fd5b80915050925092509256fea26469706673582212205c79b8ced4b72ec8f8cc0efdfcfa2e1da8a7c3c37186afd1a21a0b590770979364736f6c634300080d0033",
  "devdoc": {
    "kind": "dev",
    "methods": {},
    "version": 1
  },
  "userdoc": {
    "kind": "user",
    "methods": {},
    "version": 1
  },
  "storageLayout": {
    "storage": [],
    "types": null
  }
}